{
  "_format": "hh-sol-artifact-1",
  "contractName": "ContributionFund",
  "sourceName": "contracts/ContributionFund.sol",
  "abi": [
    {
      "inputs": [
        {
          "internalType": "address[]",
          "name": "_treasuryWallets",
          "type": "address[]"
        },
        {
          "internalType": "address",
          "name": "_usdtAddress",
          "type": "address"
        }
      ],
      "stateMutability": "nonpayable",
      "type": "constructor"
    },
    {
      "inputs": [],
      "name": "AccessControlBadConfirmation",
      "type": "error"
    },
    {
      "inputs": [
        {
          "internalType": "address",
          "name": "account",
          "type": "address"
        },
        {
          "internalType": "bytes32",
          "name": "neededRole",
          "type": "bytes32"
        }
      ],
      "name": "AccessControlUnauthorizedAccount",
      "type": "error"
    },
    {
      "inputs": [],
      "name": "EnforcedPause",
      "type": "error"
    },
    {
      "inputs": [],
      "name": "ExpectedPause",
      "type": "error"
    },
    {
      "inputs": [],
      "name": "ReentrancyGuardReentrantCall",
      "type": "error"
    },
    {
      "anonymous": false,
      "inputs": [
        {
          "indexed": true,
          "internalType": "address",
          "name": "user",
          "type": "address"
        },
        {
          "indexed": false,
          "internalType": "uint256",
          "name": "amount",
          "type": "uint256"
        },
        {
          "indexed": false,
          "internalType": "uint256",
          "name": "timestamp",
          "type": "uint256"
        }
      ],
      "name": "Contribute",
      "type": "event"
    },
    {
      "anonymous": false,
      "inputs": [
        {
          "indexed": true,
          "internalType": "address",
          "name": "previousAdmin",
          "type": "address"
        },
        {
          "indexed": true,
          "internalType": "address",
          "name": "newAdmin",
          "type": "address"
        }
      ],
      "name": "DefaultAdminTransferred",
      "type": "event"
    },
    {
      "anonymous": false,
      "inputs": [
        {
          "indexed": true,
          "internalType": "address",
          "name": "admin",
          "type": "address"
        },
        {
          "indexed": true,
          "internalType": "address",
          "name": "treasuryWallet",
          "type": "address"
        },
        {
          "indexed": false,
          "internalType": "uint256",
          "name": "amount",
          "type": "uint256"
        },
        {
          "indexed": false,
          "internalType": "uint256",
          "name": "timestamp",
          "type": "uint256"
        }
      ],
      "name": "EmergencyWithdraw",
      "type": "event"
    },
    {
      "anonymous": false,
      "inputs": [
        {
          "indexed": false,
          "internalType": "address",
          "name": "account",
          "type": "address"
        }
      ],
      "name": "Paused",
      "type": "event"
    },
    {
      "anonymous": false,
      "inputs": [
        {
          "indexed": true,
          "internalType": "bytes32",
          "name": "role",
          "type": "bytes32"
        },
        {
          "indexed": true,
          "internalType": "bytes32",
          "name": "previousAdminRole",
          "type": "bytes32"
        },
        {
          "indexed": true,
          "internalType": "bytes32",
          "name": "newAdminRole",
          "type": "bytes32"
        }
      ],
      "name": "RoleAdminChanged",
      "type": "event"
    },
    {
      "anonymous": false,
      "inputs": [
        {
          "indexed": true,
          "internalType": "bytes32",
          "name": "role",
          "type": "bytes32"
        },
        {
          "indexed": true,
          "internalType": "address",
          "name": "account",
          "type": "address"
        },
        {
          "indexed": true,
          "internalType": "address",
          "name": "sender",
          "type": "address"
        }
      ],
      "name": "RoleGranted",
      "type": "event"
    },
    {
      "anonymous": false,
      "inputs": [
        {
          "indexed": true,
          "internalType": "bytes32",
          "name": "role",
          "type": "bytes32"
        },
        {
          "indexed": true,
          "internalType": "address",
          "name": "account",
          "type": "address"
        },
        {
          "indexed": true,
          "internalType": "address",
          "name": "sender",
          "type": "address"
        }
      ],
      "name": "RoleRevoked",
      "type": "event"
    },
    {
      "anonymous": false,
      "inputs": [
        {
          "indexed": true,
          "internalType": "address",
          "name": "wallet",
          "type": "address"
        }
      ],
      "name": "TreasuryWalletRemoved",
      "type": "event"
    },
    {
      "anonymous": false,
      "inputs": [
        {
          "indexed": false,
          "internalType": "address",
          "name": "account",
          "type": "address"
        }
      ],
      "name": "Unpaused",
      "type": "event"
    },
    {
      "anonymous": false,
      "inputs": [
        {
          "indexed": false,
          "internalType": "uint256",
          "name": "minAmount",
          "type": "uint256"
        },
        {
          "indexed": false,
          "internalType": "uint256",
          "name": "maxAmount",
          "type": "uint256"
        }
      ],
      "name": "UpdateContributionLimit",
      "type": "event"
    },
    {
      "inputs": [],
      "name": "ADMIN_ROLE",
      "outputs": [
        {
          "internalType": "bytes32",
          "name": "",
          "type": "bytes32"
        }
      ],
      "stateMutability": "view",
      "type": "function"
    },
    {
      "inputs": [],
      "name": "DEFAULT_ADMIN_ROLE",
      "outputs": [
        {
          "internalType": "bytes32",
          "name": "",
          "type": "bytes32"
        }
      ],
      "stateMutability": "view",
      "type": "function"
    },
    {
      "inputs": [
        {
          "internalType": "uint256",
          "name": "amount",
          "type": "uint256"
        }
      ],
      "name": "contribute",
      "outputs": [],
      "stateMutability": "nonpayable",
      "type": "function"
    },
    {
      "inputs": [
        {
          "internalType": "address",
          "name": "treasuryWallet",
          "type": "address"
        },
        {
          "internalType": "uint256",
          "name": "amount",
          "type": "uint256"
        }
      ],
      "name": "emergencyWithdraw",
      "outputs": [],
      "stateMutability": "nonpayable",
      "type": "function"
    },
    {
      "inputs": [
        {
          "internalType": "bytes32",
          "name": "role",
          "type": "bytes32"
        }
      ],
      "name": "getRoleAdmin",
      "outputs": [
        {
          "internalType": "bytes32",
          "name": "",
          "type": "bytes32"
        }
      ],
      "stateMutability": "view",
      "type": "function"
    },
    {
      "inputs": [],
      "name": "getTreasuryWalletCount",
      "outputs": [
        {
          "internalType": "uint256",
          "name": "",
          "type": "uint256"
        }
      ],
      "stateMutability": "view",
      "type": "function"
    },
    {
      "inputs": [],
      "name": "getTreasuryWallets",
      "outputs": [
        {
          "internalType": "address[]",
          "name": "",
          "type": "address[]"
        }
      ],
      "stateMutability": "view",
      "type": "function"
    },
    {
      "inputs": [
        {
          "internalType": "address",
          "name": "user",
          "type": "address"
        }
      ],
      "name": "getUserContribution",
      "outputs": [
        {
          "internalType": "uint256",
          "name": "",
          "type": "uint256"
        }
      ],
      "stateMutability": "view",
      "type": "function"
    },
    {
      "inputs": [
        {
          "internalType": "bytes32",
          "name": "role",
          "type": "bytes32"
        },
        {
          "internalType": "address",
          "name": "account",
          "type": "address"
        }
      ],
      "name": "grantRole",
      "outputs": [],
      "stateMutability": "nonpayable",
      "type": "function"
    },
    {
      "inputs": [
        {
          "internalType": "bytes32",
          "name": "role",
          "type": "bytes32"
        },
        {
          "internalType": "address",
          "name": "account",
          "type": "address"
        }
      ],
      "name": "hasRole",
      "outputs": [
        {
          "internalType": "bool",
          "name": "",
          "type": "bool"
        }
      ],
      "stateMutability": "view",
      "type": "function"
    },
    {
      "inputs": [
        {
          "internalType": "address",
          "name": "wallet",
          "type": "address"
        }
      ],
      "name": "isValidTreasuryWallet",
      "outputs": [
        {
          "internalType": "bool",
          "name": "",
          "type": "bool"
        }
      ],
      "stateMutability": "view",
      "type": "function"
    },
    {
      "inputs": [],
      "name": "maxContributeAmount",
      "outputs": [
        {
          "internalType": "uint256",
          "name": "",
          "type": "uint256"
        }
      ],
      "stateMutability": "view",
      "type": "function"
    },
    {
      "inputs": [],
      "name": "minContributeAmount",
      "outputs": [
        {
          "internalType": "uint256",
          "name": "",
          "type": "uint256"
        }
      ],
      "stateMutability": "view",
      "type": "function"
    },
    {
      "inputs": [],
      "name": "pause",
      "outputs": [
        {
          "internalType": "bool",
          "name": "",
          "type": "bool"
        }
      ],
      "stateMutability": "nonpayable",
      "type": "function"
    },
    {
      "inputs": [],
      "name": "paused",
      "outputs": [
        {
          "internalType": "bool",
          "name": "",
          "type": "bool"
        }
      ],
      "stateMutability": "view",
      "type": "function"
    },
    {
      "inputs": [
        {
          "internalType": "address",
          "name": "wallet",
          "type": "address"
        }
      ],
      "name": "removeTreasuryWallet",
      "outputs": [],
      "stateMutability": "nonpayable",
      "type": "function"
    },
    {
      "inputs": [
        {
          "internalType": "bytes32",
          "name": "role",
          "type": "bytes32"
        },
        {
          "internalType": "address",
          "name": "callerConfirmation",
          "type": "address"
        }
      ],
      "name": "renounceRole",
      "outputs": [],
      "stateMutability": "nonpayable",
      "type": "function"
    },
    {
      "inputs": [
        {
          "internalType": "bytes32",
          "name": "role",
          "type": "bytes32"
        },
        {
          "internalType": "address",
          "name": "account",
          "type": "address"
        }
      ],
      "name": "revokeRole",
      "outputs": [],
      "stateMutability": "nonpayable",
      "type": "function"
    },
    {
      "inputs": [
        {
          "internalType": "bytes4",
          "name": "interfaceId",
          "type": "bytes4"
        }
      ],
      "name": "supportsInterface",
      "outputs": [
        {
          "internalType": "bool",
          "name": "",
          "type": "bool"
        }
      ],
      "stateMutability": "view",
      "type": "function"
    },
    {
      "inputs": [],
      "name": "totalContributions",
      "outputs": [
        {
          "internalType": "uint256",
          "name": "",
          "type": "uint256"
        }
      ],
      "stateMutability": "view",
      "type": "function"
    },
    {
      "inputs": [
        {
          "internalType": "address",
          "name": "newAdmin",
          "type": "address"
        }
      ],
      "name": "transferDefaultAdminRole",
      "outputs": [],
      "stateMutability": "nonpayable",
      "type": "function"
    },
    {
      "inputs": [],
      "name": "unpause",
      "outputs": [
        {
          "internalType": "bool",
          "name": "",
          "type": "bool"
        }
      ],
      "stateMutability": "nonpayable",
      "type": "function"
    },
    {
      "inputs": [
        {
          "internalType": "uint256",
          "name": "minAmount",
          "type": "uint256"
        },
        {
          "internalType": "uint256",
          "name": "maxAmount",
          "type": "uint256"
        }
      ],
      "name": "updateContributionLimit",
      "outputs": [],
      "stateMutability": "nonpayable",
      "type": "function"
    },
    {
      "inputs": [],
      "name": "usdt",
      "outputs": [
        {
          "internalType": "contract IBEP20",
          "name": "",
          "type": "address"
        }
      ],
      "stateMutability": "view",
      "type": "function"
    }
  ],
  "bytecode": "0x608060405234801561001057600080fd5b5060405161191238038061191283398101604081905261002f916102fa565b600160025581516100995760405162461bcd60e51b815260206004820152602960248201527f4d7573742070726f76696465206174206c65617374206f6e65207472656173756044820152681c9e481dd85b1b195d60ba1b60648201526084015b60405180910390fd5b60005b82518110156101c25760006001600160a01b03168382815181106100c2576100c26103db565b60200260200101516001600160a01b0316036101205760405162461bcd60e51b815260206004820152601f60248201527f496e76616c69642074726561737572792077616c6c65742061646472657373006044820152606401610090565b6004838281518110610134576101346103db565b60209081029190910181015182546001808201855560009485529284200180546001600160a01b0319166001600160a01b0390921691909117905584519091600991869085908110610188576101886103db565b6020908102919091018101516001600160a01b03168252810191909152604001600020805460ff191691151591909117905560010161009c565b50600380546001600160a01b0319166001600160a01b0383161790556101e960003361021c565b506102147fa49807205ce4d355092ef5a8a18f56e8913cf4a201fbe287825b095693c217753361021c565b5050506103f1565b6000828152602081815260408083206001600160a01b038516845290915281205460ff166102be576000838152602081815260408083206001600160a01b03861684529091529020805460ff191660011790556102763390565b6001600160a01b0316826001600160a01b0316847f2f8788117e7eff1d82e926ec794901d17c78024a50270940304540a733656f0d60405160405180910390a45060016102c2565b5060005b92915050565b634e487b7160e01b600052604160045260246000fd5b80516001600160a01b03811681146102f557600080fd5b919050565b6000806040838503121561030d57600080fd5b82516001600160401b0381111561032357600080fd5b8301601f8101851361033457600080fd5b80516001600160401b0381111561034d5761034d6102c8565b604051600582901b90603f8201601f191681016001600160401b038111828210171561037b5761037b6102c8565b60405291825260208184018101929081018884111561039957600080fd5b6020850194505b838510156103bf576103b1856102de565b8152602094850194016103a0565b5094506103d292505050602084016102de565b90509250929050565b634e487b7160e01b600052603260045260246000fd5b611512806104006000396000f3fe608060405234801561001057600080fd5b50600436106101985760003560e01c80635c975abb116100e3578063a7f4c4531161008c578063c6960df111610066578063c6960df114610396578063cfad7836146103a9578063d547741f146103b257600080fd5b8063a7f4c4531461032e578063bb8b2b471461035a578063c1cbbca71461038357600080fd5b806391d14854116100bd57806391d14854146102dc57806395ccea6714610313578063a217fddf1461032657600080fd5b80635c975abb146102a257806375b238fc146102ad5780638456cb59146102d457600080fd5b80632f2ff15d1161014557806337c089231161011f57806337c089231461027c5780633f4ba83a146102855780634f256f371461028d57600080fd5b80632f2ff15d1461022b5780632f48ab7d1461023e57806336568abe1461026957600080fd5b80631822142c116101765780631822142c146101ec5780631b41166f146101f5578063248a9ca31461020857600080fd5b806301ffc9a71461019d5780631526e087146101c5578063161fa67e146101da575b600080fd5b6101b06101ab3660046112dc565b6103c5565b60405190151581526020015b60405180910390f35b6101d86101d3366004611341565b61045e565b005b6004545b6040519081526020016101bc565b6101de60065481565b6101d861020336600461135c565b61057a565b6101de61021636600461137e565b60009081526020819052604090206001015490565b6101d8610239366004611397565b6105ec565b600354610251906001600160a01b031681565b6040516001600160a01b0390911681526020016101bc565b6101d8610277366004611397565b610617565b6101de60055481565b6101b0610668565b610295610684565b6040516101bc91906113c3565b60015460ff166101b0565b6101de7fa49807205ce4d355092ef5a8a18f56e8913cf4a201fbe287825b095693c2177581565b6101b0610711565b6101b06102ea366004611397565b6000918252602082815260408084206001600160a01b0393909316845291905290205460ff1690565b6101d861032136600461140f565b610725565b6101de600081565b6101b061033c366004611341565b6001600160a01b031660009081526009602052604090205460ff1690565b6101de610368366004611341565b6001600160a01b031660009081526008602052604090205490565b6101d861039136600461137e565b6109a0565b6101d86103a4366004611341565b610d6f565b6101de60075481565b6101d86103c0366004611397565b610fc7565b60007fffffffff0000000000000000000000000000000000000000000000000000000082167f7965db0b00000000000000000000000000000000000000000000000000000000148061045857507f01ffc9a7000000000000000000000000000000000000000000000000000000007fffffffff000000000000000000000000000000000000000000000000000000008316145b92915050565b600061046981610fec565b6001600160a01b0382166104c45760405162461bcd60e51b815260206004820181905260248201527f4e65772061646d696e2063616e6e6f74206265207a65726f206164647265737360448201526064015b60405180910390fd5b336001600160a01b0383160361051c5760405162461bcd60e51b815260206004820152601760248201527f43616e6e6f74207472616e7366657220746f2073656c6600000000000000000060448201526064016104bb565b33610528600084610ff6565b506105346000826110a0565b50826001600160a01b0316816001600160a01b03167f0c2288020746d1d518b97303a66723e8d2a5068fa77b37854b7fdb1673b0f1e260405160405180910390a3505050565b7fa49807205ce4d355092ef5a8a18f56e8913cf4a201fbe287825b095693c217756105a481610fec565b6006839055600782905560408051848152602081018490527f259bb6c3db2022e56b9314dc49c2d83933f703d9eb12f0731b5ddaca54e942c5910160405180910390a1505050565b60008281526020819052604090206001015461060781610fec565b6106118383610ff6565b50505050565b6001600160a01b0381163314610659576040517f6697b23200000000000000000000000000000000000000000000000000000000815260040160405180910390fd5b61066382826110a0565b505050565b60008061067481610fec565b61067c611123565b600191505090565b60607fa49807205ce4d355092ef5a8a18f56e8913cf4a201fbe287825b095693c217756106b081610fec565b600480548060200260200160405190810160405280929190818152602001828054801561070657602002820191906000526020600020905b81546001600160a01b031681526001909101906020018083116106e8575b505050505091505090565b60008061071d81610fec565b61067c611175565b61072d6111b0565b7fa49807205ce4d355092ef5a8a18f56e8913cf4a201fbe287825b095693c2177561075781610fec565b6001600160a01b03831660009081526009602052604090205460ff166107bf5760405162461bcd60e51b815260206004820152601560248201527f4e6f7420612074726561737572792077616c6c6574000000000000000000000060448201526064016104bb565b6003546040516370a0823160e01b81523060048201526001600160a01b03909116906370a0823190602401602060405180830381865afa158015610807573d6000803e3d6000fd5b505050506040513d601f19601f8201168201806040525081019061082b9190611439565b82111561087a5760405162461bcd60e51b815260206004820152601460248201527f496e73756666696369656e742062616c616e636500000000000000000000000060448201526064016104bb565b6003546040517fa9059cbb0000000000000000000000000000000000000000000000000000000081526001600160a01b038581166004830152602482018590529091169063a9059cbb906044016020604051808303816000875af11580156108e6573d6000803e3d6000fd5b505050506040513d601f19601f8201168201806040525081019061090a9190611452565b6109565760405162461bcd60e51b815260206004820152601460248201527f55534454207472616e73666572206661696c656400000000000000000000000060448201526064016104bb565b604080518381524260208201526001600160a01b0385169133917f1401b6ff3b281e84fd77353369caed48ba7e787dd3821db05cc0064373608201910160405180910390a3505050565b6109a86111b0565b6109b06111ef565b60065415610a1457600654811015610a145760405162461bcd60e51b815260206004820152602160248201527f436f6e747269627574696f6e2062656c6f77206d696e696d756d20616d6f756e6044820152601d60fa1b60648201526084016104bb565b60075415610a7857600754811115610a785760405162461bcd60e51b815260206004820152602160248201527f436f6e747269627574696f6e2061626f7665206d6178696d756d20616d6f756e6044820152601d60fa1b60648201526084016104bb565b6003546040516370a0823160e01b815233600482015282916001600160a01b0316906370a0823190602401602060405180830381865afa158015610ac0573d6000803e3d6000fd5b505050506040513d601f19601f82011682018060405250810190610ae49190611439565b1015610b325760405162461bcd60e51b815260206004820152601960248201527f496e73756666696369656e7420555344542062616c616e63650000000000000060448201526064016104bb565b6003546040517fdd62ed3e00000000000000000000000000000000000000000000000000000000815233600482015230602482015282916001600160a01b03169063dd62ed3e90604401602060405180830381865afa158015610b99573d6000803e3d6000fd5b505050506040513d601f19601f82011682018060405250810190610bbd9190611439565b1015610c0b5760405162461bcd60e51b815260206004820152601960248201527f506c6561736520617070726f766520555344542066697273740000000000000060448201526064016104bb565b6003546040517f23b872dd000000000000000000000000000000000000000000000000000000008152336004820152306024820152604481018390526001600160a01b03909116906323b872dd906064016020604051808303816000875af1158015610c7b573d6000803e3d6000fd5b505050506040513d601f19601f82011682018060405250810190610c9f9190611452565b610ceb5760405162461bcd60e51b815260206004820152601460248201527f55534454207472616e73666572206661696c656400000000000000000000000060448201526064016104bb565b3360009081526008602052604081208054839290610d0a90849061148a565b925050819055508060056000828254610d23919061148a565b90915550506040805182815242602082015233917fc9ec9df36a160cd05ae36393dca23c0128234fc68a48baec833a6d8b5967d6da910160405180910390a2610d6c6001600255565b50565b6000610d7a81610fec565b6001600160a01b03821660009081526009602052604090205460ff16610de25760405162461bcd60e51b815260206004820152601560248201527f4e6f7420612074726561737572792077616c6c6574000000000000000000000060448201526064016104bb565b600454600110610e5a5760405162461bcd60e51b815260206004820152602660248201527f4d757374206b656570206174206c65617374206f6e652074726561737572792060448201527f77616c6c6574000000000000000000000000000000000000000000000000000060648201526084016104bb565b6001600160a01b0382166000908152600960205260408120805460ff191690555b600454811015610f8e57826001600160a01b031660048281548110610ea257610ea261149d565b6000918252602090912001546001600160a01b031603610f865760048054610ecc906001906114b3565b81548110610edc57610edc61149d565b600091825260209091200154600480546001600160a01b039092169183908110610f0857610f0861149d565b9060005260206000200160006101000a8154816001600160a01b0302191690836001600160a01b031602179055506004805480610f4757610f476114c6565b600082815260209020810160001990810180547fffffffffffffffffffffffff0000000000000000000000000000000000000000169055019055610f8e565b600101610e7b565b506040516001600160a01b038316907f367ada9dda27f533e003971257ed73f1cff0fbea07ba492fc6e0ffd00e5f60ff90600090a25050565b600082815260208190526040902060010154610fe281610fec565b61061183836110a0565b610d6c8133611230565b6000828152602081815260408083206001600160a01b038516845290915281205460ff16611098576000838152602081815260408083206001600160a01b03861684529091529020805460ff191660011790556110503390565b6001600160a01b0316826001600160a01b0316847f2f8788117e7eff1d82e926ec794901d17c78024a50270940304540a733656f0d60405160405180910390a4506001610458565b506000610458565b6000828152602081815260408083206001600160a01b038516845290915281205460ff1615611098576000838152602081815260408083206001600160a01b0386168085529252808320805460ff1916905551339286917ff6391f5c32d9c69d2a47ea670b442974b53935d1edc7fd64eb21e047a839171b9190a4506001610458565b61112b6112a0565b6001805460ff191690557f5db9ee0a495bf2e6ff9c91a7834c1ba4fdd244a5e8aa4e537bd38aeae4b073aa335b6040516001600160a01b03909116815260200160405180910390a1565b61117d6111b0565b6001805460ff1916811790557f62e78cea01bee320cd4e420270b5ea74000d11b0c9f74754ebdbfc544b05a25833611158565b60015460ff16156111ed576040517fd93c066500000000000000000000000000000000000000000000000000000000815260040160405180910390fd5b565b600280540361122a576040517f3ee5aeb500000000000000000000000000000000000000000000000000000000815260040160405180910390fd5b60028055565b6000828152602081815260408083206001600160a01b038516845290915290205460ff1661129c576040517fe2517d3f0000000000000000000000000000000000000000000000000000000081526001600160a01b0382166004820152602481018390526044016104bb565b5050565b60015460ff166111ed576040517f8dfc202b00000000000000000000000000000000000000000000000000000000815260040160405180910390fd5b6000602082840312156112ee57600080fd5b81357fffffffff000000000000000000000000000000000000000000000000000000008116811461131e57600080fd5b9392505050565b80356001600160a01b038116811461133c57600080fd5b919050565b60006020828403121561135357600080fd5b61131e82611325565b6000806040838503121561136f57600080fd5b50508035926020909101359150565b60006020828403121561139057600080fd5b5035919050565b600080604083850312156113aa57600080fd5b823591506113ba60208401611325565b90509250929050565b602080825282518282018190526000918401906040840190835b818110156114045783516001600160a01b03168352602093840193909201916001016113dd565b509095945050505050565b6000806040838503121561142257600080fd5b61142b83611325565b946020939093013593505050565b60006020828403121561144b57600080fd5b5051919050565b60006020828403121561146457600080fd5b8151801515811461131e57600080fd5b634e487b7160e01b600052601160045260246000fd5b8082018082111561045857610458611474565b634e487b7160e01b600052603260045260246000fd5b8181038181111561045857610458611474565b634e487b7160e01b600052603160045260246000fdfea26469706673582212204e9a4945e885d68aa9428684ec0138c383102660a11ced8349689497a46575f664736f6c634300081c0033",
  "linkReferences": {},
  "deployedLinkReferences": {}
}