{
  "_format": "hh-sol-artifact-1",
  "contractName": "SCF37ContributionFund",
  "sourceName": "contracts/SCF37ContributionFund.sol",
  "abi": [
    {
      "inputs": [
        {
          "internalType": "address[]",
          "name": "_treasuryWallets",
          "type": "address[]"
        },
        {
          "internalType": "address",
          "name": "_usdtAddress",
          "type": "address"
        }
      ],
      "stateMutability": "nonpayable",
      "type": "constructor"
    },
    {
      "inputs": [],
      "name": "AccessControlBadConfirmation",
      "type": "error"
    },
    {
      "inputs": [
        {
          "internalType": "address",
          "name": "account",
          "type": "address"
        },
        {
          "internalType": "bytes32",
          "name": "neededRole",
          "type": "bytes32"
        }
      ],
      "name": "AccessControlUnauthorizedAccount",
      "type": "error"
    },
    {
      "inputs": [],
      "name": "EnforcedPause",
      "type": "error"
    },
    {
      "inputs": [],
      "name": "ExpectedPause",
      "type": "error"
    },
    {
      "inputs": [],
      "name": "ReentrancyGuardReentrantCall",
      "type": "error"
    },
    {
      "anonymous": false,
      "inputs": [
        {
          "indexed": true,
          "internalType": "address",
          "name": "user",
          "type": "address"
        },
        {
          "indexed": false,
          "internalType": "uint256",
          "name": "amount",
          "type": "uint256"
        },
        {
          "indexed": false,
          "internalType": "uint256",
          "name": "timestamp",
          "type": "uint256"
        }
      ],
      "name": "Contribute",
      "type": "event"
    },
    {
      "anonymous": false,
      "inputs": [
        {
          "indexed": true,
          "internalType": "address",
          "name": "previousAdmin",
          "type": "address"
        },
        {
          "indexed": true,
          "internalType": "address",
          "name": "newAdmin",
          "type": "address"
        }
      ],
      "name": "DefaultAdminTransferred",
      "type": "event"
    },
    {
      "anonymous": false,
      "inputs": [
        {
          "indexed": false,
          "internalType": "address",
          "name": "account",
          "type": "address"
        }
      ],
      "name": "Paused",
      "type": "event"
    },
    {
      "anonymous": false,
      "inputs": [
        {
          "indexed": true,
          "internalType": "bytes32",
          "name": "role",
          "type": "bytes32"
        },
        {
          "indexed": true,
          "internalType": "bytes32",
          "name": "previousAdminRole",
          "type": "bytes32"
        },
        {
          "indexed": true,
          "internalType": "bytes32",
          "name": "newAdminRole",
          "type": "bytes32"
        }
      ],
      "name": "RoleAdminChanged",
      "type": "event"
    },
    {
      "anonymous": false,
      "inputs": [
        {
          "indexed": true,
          "internalType": "bytes32",
          "name": "role",
          "type": "bytes32"
        },
        {
          "indexed": true,
          "internalType": "address",
          "name": "account",
          "type": "address"
        },
        {
          "indexed": true,
          "internalType": "address",
          "name": "sender",
          "type": "address"
        }
      ],
      "name": "RoleGranted",
      "type": "event"
    },
    {
      "anonymous": false,
      "inputs": [
        {
          "indexed": true,
          "internalType": "bytes32",
          "name": "role",
          "type": "bytes32"
        },
        {
          "indexed": true,
          "internalType": "address",
          "name": "account",
          "type": "address"
        },
        {
          "indexed": true,
          "internalType": "address",
          "name": "sender",
          "type": "address"
        }
      ],
      "name": "RoleRevoked",
      "type": "event"
    },
    {
      "anonymous": false,
      "inputs": [
        {
          "indexed": true,
          "internalType": "address",
          "name": "wallet",
          "type": "address"
        }
      ],
      "name": "TreasuryWalletAdded",
      "type": "event"
    },
    {
      "anonymous": false,
      "inputs": [
        {
          "indexed": true,
          "internalType": "address",
          "name": "wallet",
          "type": "address"
        }
      ],
      "name": "TreasuryWalletRemoved",
      "type": "event"
    },
    {
      "anonymous": false,
      "inputs": [
        {
          "indexed": false,
          "internalType": "address",
          "name": "account",
          "type": "address"
        }
      ],
      "name": "Unpaused",
      "type": "event"
    },
    {
      "anonymous": false,
      "inputs": [
        {
          "indexed": false,
          "internalType": "uint256",
          "name": "minAmount",
          "type": "uint256"
        },
        {
          "indexed": false,
          "internalType": "uint256",
          "name": "maxAmount",
          "type": "uint256"
        }
      ],
      "name": "UpdateContributionLimit",
      "type": "event"
    },
    {
      "anonymous": false,
      "inputs": [
        {
          "indexed": true,
          "internalType": "address",
          "name": "admin",
          "type": "address"
        },
        {
          "indexed": true,
          "internalType": "address",
          "name": "treasuryWallet",
          "type": "address"
        },
        {
          "indexed": false,
          "internalType": "uint256",
          "name": "amount",
          "type": "uint256"
        },
        {
          "indexed": false,
          "internalType": "uint256",
          "name": "timestamp",
          "type": "uint256"
        }
      ],
      "name": "Withdraw",
      "type": "event"
    },
    {
      "inputs": [],
      "name": "ADMIN_ROLE",
      "outputs": [
        {
          "internalType": "bytes32",
          "name": "",
          "type": "bytes32"
        }
      ],
      "stateMutability": "view",
      "type": "function"
    },
    {
      "inputs": [],
      "name": "DEFAULT_ADMIN_ROLE",
      "outputs": [
        {
          "internalType": "bytes32",
          "name": "",
          "type": "bytes32"
        }
      ],
      "stateMutability": "view",
      "type": "function"
    },
    {
      "inputs": [
        {
          "internalType": "address",
          "name": "wallet",
          "type": "address"
        }
      ],
      "name": "addTreasuryWallet",
      "outputs": [],
      "stateMutability": "nonpayable",
      "type": "function"
    },
    {
      "inputs": [
        {
          "internalType": "uint256",
          "name": "amount",
          "type": "uint256"
        }
      ],
      "name": "contribute",
      "outputs": [
        {
          "internalType": "bool",
          "name": "",
          "type": "bool"
        }
      ],
      "stateMutability": "nonpayable",
      "type": "function"
    },
    {
      "inputs": [
        {
          "internalType": "bytes32",
          "name": "role",
          "type": "bytes32"
        }
      ],
      "name": "getRoleAdmin",
      "outputs": [
        {
          "internalType": "bytes32",
          "name": "",
          "type": "bytes32"
        }
      ],
      "stateMutability": "view",
      "type": "function"
    },
    {
      "inputs": [],
      "name": "getTotalContributions",
      "outputs": [
        {
          "internalType": "uint256",
          "name": "",
          "type": "uint256"
        }
      ],
      "stateMutability": "view",
      "type": "function"
    },
    {
      "inputs": [],
      "name": "getTreasuryWalletCount",
      "outputs": [
        {
          "internalType": "uint256",
          "name": "",
          "type": "uint256"
        }
      ],
      "stateMutability": "view",
      "type": "function"
    },
    {
      "inputs": [],
      "name": "getTreasuryWallets",
      "outputs": [
        {
          "internalType": "address[]",
          "name": "",
          "type": "address[]"
        }
      ],
      "stateMutability": "view",
      "type": "function"
    },
    {
      "inputs": [
        {
          "internalType": "address",
          "name": "user",
          "type": "address"
        }
      ],
      "name": "getUserContribution",
      "outputs": [
        {
          "internalType": "uint256",
          "name": "",
          "type": "uint256"
        }
      ],
      "stateMutability": "view",
      "type": "function"
    },
    {
      "inputs": [
        {
          "internalType": "bytes32",
          "name": "role",
          "type": "bytes32"
        },
        {
          "internalType": "address",
          "name": "account",
          "type": "address"
        }
      ],
      "name": "grantRole",
      "outputs": [],
      "stateMutability": "nonpayable",
      "type": "function"
    },
    {
      "inputs": [
        {
          "internalType": "bytes32",
          "name": "role",
          "type": "bytes32"
        },
        {
          "internalType": "address",
          "name": "account",
          "type": "address"
        }
      ],
      "name": "hasRole",
      "outputs": [
        {
          "internalType": "bool",
          "name": "",
          "type": "bool"
        }
      ],
      "stateMutability": "view",
      "type": "function"
    },
    {
      "inputs": [
        {
          "internalType": "address",
          "name": "wallet",
          "type": "address"
        }
      ],
      "name": "isValidTreasuryWallet",
      "outputs": [
        {
          "internalType": "bool",
          "name": "",
          "type": "bool"
        }
      ],
      "stateMutability": "view",
      "type": "function"
    },
    {
      "inputs": [],
      "name": "maxContributeAmount",
      "outputs": [
        {
          "internalType": "uint256",
          "name": "",
          "type": "uint256"
        }
      ],
      "stateMutability": "view",
      "type": "function"
    },
    {
      "inputs": [],
      "name": "minContributeAmount",
      "outputs": [
        {
          "internalType": "uint256",
          "name": "",
          "type": "uint256"
        }
      ],
      "stateMutability": "view",
      "type": "function"
    },
    {
      "inputs": [],
      "name": "pause",
      "outputs": [
        {
          "internalType": "bool",
          "name": "",
          "type": "bool"
        }
      ],
      "stateMutability": "nonpayable",
      "type": "function"
    },
    {
      "inputs": [],
      "name": "paused",
      "outputs": [
        {
          "internalType": "bool",
          "name": "",
          "type": "bool"
        }
      ],
      "stateMutability": "view",
      "type": "function"
    },
    {
      "inputs": [
        {
          "internalType": "address",
          "name": "wallet",
          "type": "address"
        }
      ],
      "name": "removeTreasuryWallet",
      "outputs": [],
      "stateMutability": "nonpayable",
      "type": "function"
    },
    {
      "inputs": [
        {
          "internalType": "bytes32",
          "name": "role",
          "type": "bytes32"
        },
        {
          "internalType": "address",
          "name": "callerConfirmation",
          "type": "address"
        }
      ],
      "name": "renounceRole",
      "outputs": [],
      "stateMutability": "nonpayable",
      "type": "function"
    },
    {
      "inputs": [
        {
          "internalType": "bytes32",
          "name": "role",
          "type": "bytes32"
        },
        {
          "internalType": "address",
          "name": "account",
          "type": "address"
        }
      ],
      "name": "revokeRole",
      "outputs": [],
      "stateMutability": "nonpayable",
      "type": "function"
    },
    {
      "inputs": [
        {
          "internalType": "bytes4",
          "name": "interfaceId",
          "type": "bytes4"
        }
      ],
      "name": "supportsInterface",
      "outputs": [
        {
          "internalType": "bool",
          "name": "",
          "type": "bool"
        }
      ],
      "stateMutability": "view",
      "type": "function"
    },
    {
      "inputs": [
        {
          "internalType": "address",
          "name": "newAdmin",
          "type": "address"
        }
      ],
      "name": "transferDefaultAdminRole",
      "outputs": [],
      "stateMutability": "nonpayable",
      "type": "function"
    },
    {
      "inputs": [],
      "name": "unpause",
      "outputs": [
        {
          "internalType": "bool",
          "name": "",
          "type": "bool"
        }
      ],
      "stateMutability": "nonpayable",
      "type": "function"
    },
    {
      "inputs": [
        {
          "internalType": "uint256",
          "name": "minAmount",
          "type": "uint256"
        },
        {
          "internalType": "uint256",
          "name": "maxAmount",
          "type": "uint256"
        }
      ],
      "name": "updateContributionLimit",
      "outputs": [],
      "stateMutability": "nonpayable",
      "type": "function"
    },
    {
      "inputs": [],
      "name": "usdt",
      "outputs": [
        {
          "internalType": "contract IBEP20",
          "name": "",
          "type": "address"
        }
      ],
      "stateMutability": "view",
      "type": "function"
    },
    {
      "inputs": [
        {
          "internalType": "address",
          "name": "treasuryWallet",
          "type": "address"
        },
        {
          "internalType": "uint256",
          "name": "amount",
          "type": "uint256"
        }
      ],
      "name": "withdraw",
      "outputs": [],
      "stateMutability": "nonpayable",
      "type": "function"
    }
  ],
  "bytecode": "0x60a060405234801561001057600080fd5b50604051611b91380380611b9183398101604081905261002f916102ee565b600160025581516100995760405162461bcd60e51b815260206004820152602960248201527f4d7573742070726f76696465206174206c65617374206f6e65207472656173756044820152681c9e481dd85b1b195d60ba1b60648201526084015b60405180910390fd5b815160005b818110156101c35760006001600160a01b03168482815181106100c3576100c36103cf565b60200260200101516001600160a01b0316036101215760405162461bcd60e51b815260206004820152601f60248201527f496e76616c69642074726561737572792077616c6c65742061646472657373006044820152606401610090565b6003848281518110610135576101356103cf565b60209081029190910181015182546001808201855560009485529284200180546001600160a01b0319166001600160a01b0390921691909117905585519091600891879085908110610189576101896103cf565b6020908102919091018101516001600160a01b03168252810191909152604001600020805460ff191691151591909117905560010161009e565b506001600160a01b0382166080526101dc600033610210565b506102077fa49807205ce4d355092ef5a8a18f56e8913cf4a201fbe287825b095693c2177533610210565b505050506103e5565b6000828152602081815260408083206001600160a01b038516845290915281205460ff166102b2576000838152602081815260408083206001600160a01b03861684529091529020805460ff1916600117905561026a3390565b6001600160a01b0316826001600160a01b0316847f2f8788117e7eff1d82e926ec794901d17c78024a50270940304540a733656f0d60405160405180910390a45060016102b6565b5060005b92915050565b634e487b7160e01b600052604160045260246000fd5b80516001600160a01b03811681146102e957600080fd5b919050565b6000806040838503121561030157600080fd5b82516001600160401b0381111561031757600080fd5b8301601f8101851361032857600080fd5b80516001600160401b03811115610341576103416102bc565b604051600582901b90603f8201601f191681016001600160401b038111828210171561036f5761036f6102bc565b60405291825260208184018101929081018884111561038d57600080fd5b6020850194505b838510156103b3576103a5856102d2565b815260209485019401610394565b5094506103c692505050602084016102d2565b90509250929050565b634e487b7160e01b600052603260045260246000fd5b60805161176e61042360003960008181610260015281816109d601528181610ad701528181610bd7015281816110460152611147015261176e6000f3fe608060405234801561001057600080fd5b50600436106101a25760003560e01c80635c975abb116100ee578063bb8b2b4711610097578063cfad783611610071578063cfad7836146103be578063d547741f146103c7578063ddf556d0146103da578063f3fef3a3146103e257600080fd5b8063bb8b2b471461036f578063c1cbbca714610398578063c6960df1146103ab57600080fd5b806391d14854116100c857806391d1485414610304578063a217fddf1461033b578063a7f4c4531461034357600080fd5b80635c975abb146102ca57806375b238fc146102d55780638456cb59146102fc57600080fd5b8063248a9ca31161015057806336568abe1161012a57806336568abe1461029a5780633f4ba83a146102ad5780634f256f37146102b557600080fd5b8063248a9ca3146102255780632f2ff15d146102485780632f48ab7d1461025b57600080fd5b8063161fa67e11610181578063161fa67e146101f75780631822142c146102095780631b41166f1461021257600080fd5b806295c854146101a757806301ffc9a7146101bc5780631526e087146101e4575b600080fd5b6101ba6101b5366004611554565b6103f5565b005b6101cf6101ca366004611576565b610587565b60405190151581526020015b60405180910390f35b6101ba6101f2366004611554565b610620565b6003545b6040519081526020016101db565b6101fb60045481565b6101ba6102203660046115b8565b610737565b6101fb6102333660046115da565b60009081526020819052604090206001015490565b6101ba6102563660046115f3565b6107a9565b6102827f000000000000000000000000000000000000000000000000000000000000000081565b6040516001600160a01b0390911681526020016101db565b6101ba6102a83660046115f3565b6107d4565b6101cf610825565b6102bd610841565b6040516101db919061161f565b60015460ff166101cf565b6101fb7fa49807205ce4d355092ef5a8a18f56e8913cf4a201fbe287825b095693c2177581565b6101cf6108ce565b6101cf6103123660046115f3565b6000918252602082815260408084206001600160a01b0393909316845291905290205460ff1690565b6101fb600081565b6101cf610351366004611554565b6001600160a01b031660009081526008602052604090205460ff1690565b6101fb61037d366004611554565b6001600160a01b031660009081526007602052604090205490565b6101cf6103a63660046115da565b6108e2565b6101ba6103b9366004611554565b610d2d565b6101fb60055481565b6101ba6103d53660046115f3565b610f7a565b6006546101fb565b6101ba6103f036600461166b565b610f9f565b60006104008161124a565b6001600160a01b03821661045b5760405162461bcd60e51b815260206004820152601f60248201527f496e76616c69642074726561737572792077616c6c657420616464726573730060448201526064015b60405180910390fd5b6001600160a01b03821660009081526008602052604090205460ff16156104ea5760405162461bcd60e51b815260206004820152602360248201527f57616c6c657420697320616c726561647920612074726561737572792077616c60448201527f6c657400000000000000000000000000000000000000000000000000000000006064820152608401610452565b6003805460018082019092557fc2575a0e9e593c00f959f8c92f12db2869c3395a3b0502d05e2516446f71f85b01805473ffffffffffffffffffffffffffffffffffffffff19166001600160a01b038516908117909155600081815260086020526040808220805460ff1916909417909355915190917f963f3e10bf1d252b2a30896c09f8b7ee99b478bb193977c175a7d9bfeb46d67191a25050565b60007fffffffff0000000000000000000000000000000000000000000000000000000082167f7965db0b00000000000000000000000000000000000000000000000000000000148061061a57507f01ffc9a7000000000000000000000000000000000000000000000000000000007fffffffff000000000000000000000000000000000000000000000000000000008316145b92915050565b600061062b8161124a565b6001600160a01b0382166106815760405162461bcd60e51b815260206004820181905260248201527f4e65772061646d696e2063616e6e6f74206265207a65726f20616464726573736044820152606401610452565b336001600160a01b038316036106d95760405162461bcd60e51b815260206004820152601760248201527f43616e6e6f74207472616e7366657220746f2073656c660000000000000000006044820152606401610452565b336106e5600084611257565b506106f1600082611301565b50826001600160a01b0316816001600160a01b03167f0c2288020746d1d518b97303a66723e8d2a5068fa77b37854b7fdb1673b0f1e260405160405180910390a3505050565b7fa49807205ce4d355092ef5a8a18f56e8913cf4a201fbe287825b095693c217756107618161124a565b6004839055600582905560408051848152602081018490527f259bb6c3db2022e56b9314dc49c2d83933f703d9eb12f0731b5ddaca54e942c5910160405180910390a1505050565b6000828152602081905260409020600101546107c48161124a565b6107ce8383611257565b50505050565b6001600160a01b0381163314610816576040517f6697b23200000000000000000000000000000000000000000000000000000000815260040160405180910390fd5b6108208282611301565b505050565b6000806108318161124a565b610839611384565b600191505090565b60607fa49807205ce4d355092ef5a8a18f56e8913cf4a201fbe287825b095693c2177561086d8161124a565b60038054806020026020016040519081016040528092919081815260200182805480156108c357602002820191906000526020600020905b81546001600160a01b031681526001909101906020018083116108a5575b505050505091505090565b6000806108da8161124a565b6108396113d6565b60006108ec611411565b6108f4611450565b60045415610958576004548210156109585760405162461bcd60e51b815260206004820152602160248201527f436f6e747269627574696f6e2062656c6f77206d696e696d756d20616d6f756e6044820152601d60fa1b6064820152608401610452565b600554156109bc576005548211156109bc5760405162461bcd60e51b815260206004820152602160248201527f436f6e747269627574696f6e2061626f7665206d6178696d756d20616d6f756e6044820152601d60fa1b6064820152608401610452565b6040516370a0823160e01b815233600482018190529083907f00000000000000000000000000000000000000000000000000000000000000006001600160a01b0316906370a0823190602401602060405180830381865afa158015610a25573d6000803e3d6000fd5b505050506040513d601f19601f82011682018060405250810190610a499190611695565b1015610a975760405162461bcd60e51b815260206004820152601960248201527f496e73756666696369656e7420555344542062616c616e6365000000000000006044820152606401610452565b6040517fdd62ed3e0000000000000000000000000000000000000000000000000000000081526001600160a01b03828116600483015230602483015284917f00000000000000000000000000000000000000000000000000000000000000009091169063dd62ed3e90604401602060405180830381865afa158015610b20573d6000803e3d6000fd5b505050506040513d601f19601f82011682018060405250810190610b449190611695565b1015610b925760405162461bcd60e51b815260206004820152601960248201527f506c6561736520617070726f76652055534454206669727374000000000000006044820152606401610452565b6040517f23b872dd0000000000000000000000000000000000000000000000000000000081526001600160a01b038281166004830152306024830152604482018590527f000000000000000000000000000000000000000000000000000000000000000016906323b872dd906064016020604051808303816000875af1158015610c20573d6000803e3d6000fd5b505050506040513d601f19601f82011682018060405250810190610c4491906116ae565b610c905760405162461bcd60e51b815260206004820152601460248201527f55534454207472616e73666572206661696c65640000000000000000000000006044820152606401610452565b6001600160a01b03811660009081526007602052604081208054859290610cb89084906116e6565b925050819055508260066000828254610cd191906116e6565b9091555050604080518481524260208201526001600160a01b038316917fc9ec9df36a160cd05ae36393dca23c0128234fc68a48baec833a6d8b5967d6da910160405180910390a26001915050610d286001600255565b919050565b6000610d388161124a565b6001600160a01b03821660009081526008602052604090205460ff16610da05760405162461bcd60e51b815260206004820152601560248201527f4e6f7420612074726561737572792077616c6c657400000000000000000000006044820152606401610452565b600354600110610e185760405162461bcd60e51b815260206004820152602660248201527f4d757374206b656570206174206c65617374206f6e652074726561737572792060448201527f77616c6c657400000000000000000000000000000000000000000000000000006064820152608401610452565b6001600160a01b0382166000908152600860205260408120805460ff19169055600354905b81811015610f4057836001600160a01b031660038281548110610e6257610e626116f9565b6000918252602090912001546001600160a01b031603610f38576003610e8960018461170f565b81548110610e9957610e996116f9565b600091825260209091200154600380546001600160a01b039092169183908110610ec557610ec56116f9565b9060005260206000200160006101000a8154816001600160a01b0302191690836001600160a01b031602179055506003805480610f0457610f04611722565b6000828152602090208101600019908101805473ffffffffffffffffffffffffffffffffffffffff19169055019055610f40565b600101610e3d565b506040516001600160a01b038416907f367ada9dda27f533e003971257ed73f1cff0fbea07ba492fc6e0ffd00e5f60ff90600090a2505050565b600082815260208190526040902060010154610f958161124a565b6107ce8383611301565b7fa49807205ce4d355092ef5a8a18f56e8913cf4a201fbe287825b095693c21775610fc98161124a565b6001600160a01b03831660009081526008602052604090205460ff166110315760405162461bcd60e51b815260206004820152601560248201527f4e6f7420612074726561737572792077616c6c657400000000000000000000006044820152606401610452565b6040516370a0823160e01b81523060048201527f00000000000000000000000000000000000000000000000000000000000000006001600160a01b0316906370a0823190602401602060405180830381865afa158015611095573d6000803e3d6000fd5b505050506040513d601f19601f820116820180604052508101906110b99190611695565b8211156111085760405162461bcd60e51b815260206004820152601460248201527f496e73756666696369656e742062616c616e63650000000000000000000000006044820152606401610452565b6040517fa9059cbb0000000000000000000000000000000000000000000000000000000081526001600160a01b038481166004830152602482018490527f0000000000000000000000000000000000000000000000000000000000000000169063a9059cbb906044016020604051808303816000875af1158015611190573d6000803e3d6000fd5b505050506040513d601f19601f820116820180604052508101906111b491906116ae565b6112005760405162461bcd60e51b815260206004820152601460248201527f55534454207472616e73666572206661696c65640000000000000000000000006044820152606401610452565b604080518381524260208201526001600160a01b0385169133917ff341246adaac6f497bc2a656f546ab9e182111d630394f0c57c710a59a2cb567910160405180910390a3505050565b6112548133611491565b50565b6000828152602081815260408083206001600160a01b038516845290915281205460ff166112f9576000838152602081815260408083206001600160a01b03861684529091529020805460ff191660011790556112b13390565b6001600160a01b0316826001600160a01b0316847f2f8788117e7eff1d82e926ec794901d17c78024a50270940304540a733656f0d60405160405180910390a450600161061a565b50600061061a565b6000828152602081815260408083206001600160a01b038516845290915281205460ff16156112f9576000838152602081815260408083206001600160a01b0386168085529252808320805460ff1916905551339286917ff6391f5c32d9c69d2a47ea670b442974b53935d1edc7fd64eb21e047a839171b9190a450600161061a565b61138c611501565b6001805460ff191690557f5db9ee0a495bf2e6ff9c91a7834c1ba4fdd244a5e8aa4e537bd38aeae4b073aa335b6040516001600160a01b03909116815260200160405180910390a1565b6113de611411565b6001805460ff1916811790557f62e78cea01bee320cd4e420270b5ea74000d11b0c9f74754ebdbfc544b05a258336113b9565b60015460ff161561144e576040517fd93c066500000000000000000000000000000000000000000000000000000000815260040160405180910390fd5b565b600280540361148b576040517f3ee5aeb500000000000000000000000000000000000000000000000000000000815260040160405180910390fd5b60028055565b6000828152602081815260408083206001600160a01b038516845290915290205460ff166114fd576040517fe2517d3f0000000000000000000000000000000000000000000000000000000081526001600160a01b038216600482015260248101839052604401610452565b5050565b60015460ff1661144e576040517f8dfc202b00000000000000000000000000000000000000000000000000000000815260040160405180910390fd5b80356001600160a01b0381168114610d2857600080fd5b60006020828403121561156657600080fd5b61156f8261153d565b9392505050565b60006020828403121561158857600080fd5b81357fffffffff000000000000000000000000000000000000000000000000000000008116811461156f57600080fd5b600080604083850312156115cb57600080fd5b50508035926020909101359150565b6000602082840312156115ec57600080fd5b5035919050565b6000806040838503121561160657600080fd5b823591506116166020840161153d565b90509250929050565b602080825282518282018190526000918401906040840190835b818110156116605783516001600160a01b0316835260209384019390920191600101611639565b509095945050505050565b6000806040838503121561167e57600080fd5b6116878361153d565b946020939093013593505050565b6000602082840312156116a757600080fd5b5051919050565b6000602082840312156116c057600080fd5b8151801515811461156f57600080fd5b634e487b7160e01b600052601160045260246000fd5b8082018082111561061a5761061a6116d0565b634e487b7160e01b600052603260045260246000fd5b8181038181111561061a5761061a6116d0565b634e487b7160e01b600052603160045260246000fdfea264697066735822122034e456a45afcff26506cde19d4a234d64636a081339e1ef55fffe4984ac02aaf64736f6c634300081c0033",
  "linkReferences": {},
  "deployedLinkReferences": {}
}