{
  "_format": "hh-sol-artifact-1",
  "contractName": "SCF37ContributionTracker",
  "sourceName": "contracts/SCF37ContributionTracker.sol",
  "abi": [
    {
      "inputs": [],
      "stateMutability": "nonpayable",
      "type": "constructor"
    },
    {
      "inputs": [],
      "name": "AccessControlBadConfirmation",
      "type": "error"
    },
    {
      "inputs": [
        {
          "internalType": "address",
          "name": "account",
          "type": "address"
        },
        {
          "internalType": "bytes32",
          "name": "neededRole",
          "type": "bytes32"
        }
      ],
      "name": "AccessControlUnauthorizedAccount",
      "type": "error"
    },
    {
      "inputs": [],
      "name": "EnforcedPause",
      "type": "error"
    },
    {
      "inputs": [],
      "name": "ExpectedPause",
      "type": "error"
    },
    {
      "anonymous": false,
      "inputs": [
        {
          "indexed": false,
          "internalType": "address",
          "name": "account",
          "type": "address"
        }
      ],
      "name": "Paused",
      "type": "event"
    },
    {
      "anonymous": false,
      "inputs": [
        {
          "indexed": true,
          "internalType": "address",
          "name": "user",
          "type": "address"
        },
        {
          "indexed": false,
          "internalType": "uint256",
          "name": "amount",
          "type": "uint256"
        },
        {
          "indexed": false,
          "internalType": "uint256",
          "name": "timestamp",
          "type": "uint256"
        },
        {
          "indexed": false,
          "internalType": "bytes32",
          "name": "txhash",
          "type": "bytes32"
        },
        {
          "indexed": false,
          "internalType": "enum SCF37ContributionTracker.ActionType",
          "name": "action",
          "type": "uint8"
        },
        {
          "indexed": false,
          "internalType": "string",
          "name": "note",
          "type": "string"
        }
      ],
      "name": "RecordContribution",
      "type": "event"
    },
    {
      "anonymous": false,
      "inputs": [
        {
          "indexed": true,
          "internalType": "bytes32",
          "name": "role",
          "type": "bytes32"
        },
        {
          "indexed": true,
          "internalType": "bytes32",
          "name": "previousAdminRole",
          "type": "bytes32"
        },
        {
          "indexed": true,
          "internalType": "bytes32",
          "name": "newAdminRole",
          "type": "bytes32"
        }
      ],
      "name": "RoleAdminChanged",
      "type": "event"
    },
    {
      "anonymous": false,
      "inputs": [
        {
          "indexed": true,
          "internalType": "bytes32",
          "name": "role",
          "type": "bytes32"
        },
        {
          "indexed": true,
          "internalType": "address",
          "name": "account",
          "type": "address"
        },
        {
          "indexed": true,
          "internalType": "address",
          "name": "sender",
          "type": "address"
        }
      ],
      "name": "RoleGranted",
      "type": "event"
    },
    {
      "anonymous": false,
      "inputs": [
        {
          "indexed": true,
          "internalType": "bytes32",
          "name": "role",
          "type": "bytes32"
        },
        {
          "indexed": true,
          "internalType": "address",
          "name": "account",
          "type": "address"
        },
        {
          "indexed": true,
          "internalType": "address",
          "name": "sender",
          "type": "address"
        }
      ],
      "name": "RoleRevoked",
      "type": "event"
    },
    {
      "anonymous": false,
      "inputs": [
        {
          "indexed": false,
          "internalType": "address",
          "name": "account",
          "type": "address"
        }
      ],
      "name": "Unpaused",
      "type": "event"
    },
    {
      "anonymous": false,
      "inputs": [
        {
          "indexed": true,
          "internalType": "address",
          "name": "user",
          "type": "address"
        },
        {
          "indexed": false,
          "internalType": "uint256",
          "name": "amount",
          "type": "uint256"
        },
        {
          "indexed": false,
          "internalType": "uint256",
          "name": "timestamp",
          "type": "uint256"
        },
        {
          "indexed": false,
          "internalType": "bytes32",
          "name": "txhash",
          "type": "bytes32"
        },
        {
          "indexed": false,
          "internalType": "enum SCF37ContributionTracker.ActionType",
          "name": "action",
          "type": "uint8"
        },
        {
          "indexed": false,
          "internalType": "string",
          "name": "note",
          "type": "string"
        }
      ],
      "name": "UpdatedHistory",
      "type": "event"
    },
    {
      "anonymous": false,
      "inputs": [
        {
          "indexed": true,
          "internalType": "address",
          "name": "user",
          "type": "address"
        },
        {
          "indexed": false,
          "internalType": "uint256",
          "name": "oldTotal",
          "type": "uint256"
        },
        {
          "indexed": false,
          "internalType": "uint256",
          "name": "newTotal",
          "type": "uint256"
        },
        {
          "indexed": false,
          "internalType": "string",
          "name": "note",
          "type": "string"
        }
      ],
      "name": "UserTotalUpdated",
      "type": "event"
    },
    {
      "inputs": [],
      "name": "ADMIN_ROLE",
      "outputs": [
        {
          "internalType": "bytes32",
          "name": "",
          "type": "bytes32"
        }
      ],
      "stateMutability": "view",
      "type": "function"
    },
    {
      "inputs": [],
      "name": "DEFAULT_ADMIN_ROLE",
      "outputs": [
        {
          "internalType": "bytes32",
          "name": "",
          "type": "bytes32"
        }
      ],
      "stateMutability": "view",
      "type": "function"
    },
    {
      "inputs": [
        {
          "internalType": "address",
          "name": "user",
          "type": "address"
        }
      ],
      "name": "getHistoryByUser",
      "outputs": [
        {
          "components": [
            {
              "internalType": "uint256",
              "name": "amount",
              "type": "uint256"
            },
            {
              "internalType": "uint256",
              "name": "timestamp",
              "type": "uint256"
            },
            {
              "internalType": "bytes32",
              "name": "txhash",
              "type": "bytes32"
            },
            {
              "internalType": "enum SCF37ContributionTracker.ActionType",
              "name": "action",
              "type": "uint8"
            },
            {
              "internalType": "string",
              "name": "note",
              "type": "string"
            }
          ],
          "internalType": "struct SCF37ContributionTracker.HistoryEntry[]",
          "name": "",
          "type": "tuple[]"
        }
      ],
      "stateMutability": "view",
      "type": "function"
    },
    {
      "inputs": [
        {
          "internalType": "address",
          "name": "user",
          "type": "address"
        }
      ],
      "name": "getHistoryCount",
      "outputs": [
        {
          "internalType": "uint256",
          "name": "",
          "type": "uint256"
        }
      ],
      "stateMutability": "view",
      "type": "function"
    },
    {
      "inputs": [
        {
          "internalType": "address",
          "name": "user",
          "type": "address"
        },
        {
          "internalType": "uint256",
          "name": "index",
          "type": "uint256"
        }
      ],
      "name": "getHistoryEntry",
      "outputs": [
        {
          "components": [
            {
              "internalType": "uint256",
              "name": "amount",
              "type": "uint256"
            },
            {
              "internalType": "uint256",
              "name": "timestamp",
              "type": "uint256"
            },
            {
              "internalType": "bytes32",
              "name": "txhash",
              "type": "bytes32"
            },
            {
              "internalType": "enum SCF37ContributionTracker.ActionType",
              "name": "action",
              "type": "uint8"
            },
            {
              "internalType": "string",
              "name": "note",
              "type": "string"
            }
          ],
          "internalType": "struct SCF37ContributionTracker.HistoryEntry",
          "name": "",
          "type": "tuple"
        }
      ],
      "stateMutability": "view",
      "type": "function"
    },
    {
      "inputs": [
        {
          "internalType": "bytes32",
          "name": "role",
          "type": "bytes32"
        }
      ],
      "name": "getRoleAdmin",
      "outputs": [
        {
          "internalType": "bytes32",
          "name": "",
          "type": "bytes32"
        }
      ],
      "stateMutability": "view",
      "type": "function"
    },
    {
      "inputs": [
        {
          "internalType": "address",
          "name": "user",
          "type": "address"
        }
      ],
      "name": "getTotalByUser",
      "outputs": [
        {
          "internalType": "uint256",
          "name": "",
          "type": "uint256"
        }
      ],
      "stateMutability": "view",
      "type": "function"
    },
    {
      "inputs": [],
      "name": "getTotalSystem",
      "outputs": [
        {
          "internalType": "uint256",
          "name": "",
          "type": "uint256"
        }
      ],
      "stateMutability": "view",
      "type": "function"
    },
    {
      "inputs": [
        {
          "internalType": "bytes32",
          "name": "role",
          "type": "bytes32"
        },
        {
          "internalType": "address",
          "name": "account",
          "type": "address"
        }
      ],
      "name": "grantRole",
      "outputs": [],
      "stateMutability": "nonpayable",
      "type": "function"
    },
    {
      "inputs": [
        {
          "internalType": "bytes32",
          "name": "role",
          "type": "bytes32"
        },
        {
          "internalType": "address",
          "name": "account",
          "type": "address"
        }
      ],
      "name": "hasRole",
      "outputs": [
        {
          "internalType": "bool",
          "name": "",
          "type": "bool"
        }
      ],
      "stateMutability": "view",
      "type": "function"
    },
    {
      "inputs": [],
      "name": "pause",
      "outputs": [],
      "stateMutability": "nonpayable",
      "type": "function"
    },
    {
      "inputs": [],
      "name": "paused",
      "outputs": [
        {
          "internalType": "bool",
          "name": "",
          "type": "bool"
        }
      ],
      "stateMutability": "view",
      "type": "function"
    },
    {
      "inputs": [
        {
          "internalType": "address",
          "name": "user",
          "type": "address"
        },
        {
          "internalType": "uint256",
          "name": "amount",
          "type": "uint256"
        },
        {
          "internalType": "uint256",
          "name": "timestamp",
          "type": "uint256"
        },
        {
          "internalType": "bytes32",
          "name": "txhash",
          "type": "bytes32"
        },
        {
          "internalType": "string",
          "name": "note",
          "type": "string"
        }
      ],
      "name": "recordContribution",
      "outputs": [],
      "stateMutability": "nonpayable",
      "type": "function"
    },
    {
      "inputs": [
        {
          "internalType": "bytes32",
          "name": "role",
          "type": "bytes32"
        },
        {
          "internalType": "address",
          "name": "callerConfirmation",
          "type": "address"
        }
      ],
      "name": "renounceRole",
      "outputs": [],
      "stateMutability": "nonpayable",
      "type": "function"
    },
    {
      "inputs": [
        {
          "internalType": "bytes32",
          "name": "role",
          "type": "bytes32"
        },
        {
          "internalType": "address",
          "name": "account",
          "type": "address"
        }
      ],
      "name": "revokeRole",
      "outputs": [],
      "stateMutability": "nonpayable",
      "type": "function"
    },
    {
      "inputs": [
        {
          "internalType": "address",
          "name": "user",
          "type": "address"
        },
        {
          "internalType": "uint256",
          "name": "newTotal",
          "type": "uint256"
        },
        {
          "internalType": "string",
          "name": "note",
          "type": "string"
        }
      ],
      "name": "setUserTotal",
      "outputs": [],
      "stateMutability": "nonpayable",
      "type": "function"
    },
    {
      "inputs": [
        {
          "internalType": "bytes4",
          "name": "interfaceId",
          "type": "bytes4"
        }
      ],
      "name": "supportsInterface",
      "outputs": [
        {
          "internalType": "bool",
          "name": "",
          "type": "bool"
        }
      ],
      "stateMutability": "view",
      "type": "function"
    },
    {
      "inputs": [],
      "name": "unpause",
      "outputs": [],
      "stateMutability": "nonpayable",
      "type": "function"
    },
    {
      "inputs": [
        {
          "internalType": "address",
          "name": "user",
          "type": "address"
        },
        {
          "internalType": "uint256",
          "name": "index",
          "type": "uint256"
        },
        {
          "internalType": "uint256",
          "name": "newAmount",
          "type": "uint256"
        },
        {
          "internalType": "bytes32",
          "name": "txhash",
          "type": "bytes32"
        },
        {
          "internalType": "bool",
          "name": "changeNote",
          "type": "bool"
        },
        {
          "internalType": "string",
          "name": "note",
          "type": "string"
        }
      ],
      "name": "updateHistory",
      "outputs": [],
      "stateMutability": "nonpayable",
      "type": "function"
    }
  ],
  "bytecode": "0x608060405234801561001057600080fd5b5061001c60003361004d565b506100477fa49807205ce4d355092ef5a8a18f56e8913cf4a201fbe287825b095693c217753361004d565b506100f9565b6000828152602081815260408083206001600160a01b038516845290915281205460ff166100ef576000838152602081815260408083206001600160a01b03861684529091529020805460ff191660011790556100a73390565b6001600160a01b0316826001600160a01b0316847f2f8788117e7eff1d82e926ec794901d17c78024a50270940304540a733656f0d60405160405180910390a45060016100f3565b5060005b92915050565b6117b0806101086000396000f3fe608060405234801561001057600080fd5b50600436106101515760003560e01c80636ccdb6f3116100cd57806391d1485411610081578063a27fdf9911610066578063a27fdf99146102d9578063b1fdb11b14610302578063d547741f1461032b57600080fd5b806391d148541461029a578063a217fddf146102d157600080fd5b806375b238fc116100b257806375b238fc1461024b5780638456cb59146102725780638cc9383e1461027a57600080fd5b80636ccdb6f3146102305780636cfd8ee41461023857600080fd5b806336568abe116101245780633f4ba83a116101095780633f4ba83a146101fd5780635213cd1e146102055780635c975abb1461022557600080fd5b806336568abe146101d75780633ec58f64146101ea57600080fd5b806301ffc9a71461015657806310de89d41461017e578063248a9ca3146101935780632f2ff15d146101c4575b600080fd5b6101696101643660046110bb565b61033e565b60405190151581526020015b60405180910390f35b61019161018c366004611169565b6103d7565b005b6101b66101a13660046111f2565b60009081526020819052604090206001015490565b604051908152602001610175565b6101916101d236600461120b565b610663565b6101916101e536600461120b565b61068e565b6101916101f8366004611237565b6106df565b610191610833565b610218610213366004611291565b610849565b6040516101759190611366565b60015460ff16610169565b6004546101b6565b6101916102463660046113cb565b6109a7565b6101b67fa49807205ce4d355092ef5a8a18f56e8913cf4a201fbe287825b095693c2177581565b610191610c07565b61028d61028836600461143c565b610c1a565b6040516101759190611466565b6101696102a836600461120b565b6000918252602082815260408084206001600160a01b0393909316845291905290205460ff1690565b6101b6600081565b6101b66102e7366004611291565b6001600160a01b031660009081526003602052604090205490565b6101b6610310366004611291565b6001600160a01b031660009081526002602052604090205490565b61019161033936600461120b565b610de7565b60007fffffffff0000000000000000000000000000000000000000000000000000000082167f7965db0b0000000000000000000000000000000000000000000000000000000014806103d157507f01ffc9a7000000000000000000000000000000000000000000000000000000007fffffffff000000000000000000000000000000000000000000000000000000008316145b92915050565b7fa49807205ce4d355092ef5a8a18f56e8913cf4a201fbe287825b095693c2177561040181610e0c565b610409610e16565b6001600160a01b0388166104645760405162461bcd60e51b815260206004820152601460248201527f496e76616c69642075736572206164647265737300000000000000000000000060448201526064015b60405180910390fd5b6001600160a01b03881660009081526002602052604090205487106104cb5760405162461bcd60e51b815260206004820152600d60248201527f496e76616c696420696e64657800000000000000000000000000000000000000604482015260640161045b565b6001600160a01b03881660009081526002602052604081208054899081106104f5576104f5611479565b6000918252602090912060059091020180549091508088111561057057600061051e828a6114a5565b6001600160a01b038c1660009081526003602052604081208054929350839290919061054b9084906114b8565b92505081905550806004600082825461056491906114b8565b909155506105d1915050565b878111156105d157600061058489836114a5565b6001600160a01b038c166000908152600360205260408120805492935083929091906105b19084906114a5565b9250508190555080600460008282546105ca91906114a5565b9091555050505b878255426001808401919091556002830188905560038301805460ff19169091179055851561060b5760048201610609858783611569565b505b896001600160a01b03167f87c65ee1c7958f0836bfb0ce40eb702e7483ca6468df21ef4ad8b91f846f64a689428a60018a8a60405161064f96959493929190611652565b60405180910390a250505050505050505050565b60008281526020819052604090206001015461067e81610e0c565b6106888383610e55565b50505050565b6001600160a01b03811633146106d0576040517f6697b23200000000000000000000000000000000000000000000000000000000815260040160405180910390fd5b6106da8282610eff565b505050565b7fa49807205ce4d355092ef5a8a18f56e8913cf4a201fbe287825b095693c2177561070981610e0c565b610711610e16565b6001600160a01b0385166107675760405162461bcd60e51b815260206004820152601460248201527f496e76616c696420757365722061646472657373000000000000000000000000604482015260640161045b565b6001600160a01b038516600090815260036020526040902054808511156107a95761079281866114a5565b600460008282546107a391906114b8565b90915550505b848111156107d2576107bb85826114a5565b600460008282546107cc91906114a5565b90915550505b6001600160a01b03861660008181526003602052604090819020879055517fe73ca463945d952cd7093ceaf2203b60b7dd0eee91a1aff7e8f2c0c08bf8299e90610823908490899089908990611691565b60405180910390a2505050505050565b600061083e81610e0c565b610846610f82565b50565b6001600160a01b0381166000908152600260209081526040808320805482518185028101850190935280835260609492939192909184015b8282101561099c57838290600052602060002090600502016040518060a00160405290816000820154815260200160018201548152602001600282015481526020016003820160009054906101000a900460ff1660018111156108e6576108e66112ac565b60018111156108f7576108f76112ac565b815260200160048201805461090b906114e1565b80601f0160208091040260200160405190810160405280929190818152602001828054610937906114e1565b80156109845780601f1061095957610100808354040283529160200191610984565b820191906000526020600020905b81548152906001019060200180831161096757829003601f168201915b50505050508152505081526020019060010190610881565b505050509050919050565b7fa49807205ce4d355092ef5a8a18f56e8913cf4a201fbe287825b095693c217756109d181610e0c565b6109d9610e16565b6001600160a01b038716610a2f5760405162461bcd60e51b815260206004820152601460248201527f496e76616c696420757365722061646472657373000000000000000000000000604482015260640161045b565b60008611610a7f5760405162461bcd60e51b815260206004820152601260248201527f416d6f756e74206d757374206265203e20300000000000000000000000000000604482015260640161045b565b6001600160a01b0387166000908152600260209081526040808320815160a0810183528a8152928301899052908201879052916060820190815260200185858080601f016020809104026020016040519081016040528093929190818152602001838380828437600092018290525093909452505083546001818101865594825260209182902084516005909202019081559083015181850155604083015160028201556060830151600382018054949592949193509160ff19909116908381811115610b4e57610b4e6112ac565b021790555060808201516004820190610b6790826116bb565b5050506001600160a01b03871660009081526003602052604081208054889290610b929084906114b8565b925050819055508560046000828254610bab91906114b8565b92505081905550866001600160a01b03167fcf0757256694536d30c25faf9c59f92df0534998f9ffddfe62815d4aa22ce78d87878760008888604051610bf696959493929190611652565b60405180910390a250505050505050565b6000610c1281610e0c565b610846610fd4565b610c4c6040805160a0810182526000808252602082018190529181018290529060608201908152602001606081525090565b6001600160a01b0383166000908152600260205260409020548210610cb35760405162461bcd60e51b815260206004820152601260248201527f496e646578206f7574206f662072616e67650000000000000000000000000000604482015260640161045b565b6001600160a01b0383166000908152600260205260409020805483908110610cdd57610cdd611479565b90600052602060002090600502016040518060a00160405290816000820154815260200160018201548152602001600282015481526020016003820160009054906101000a900460ff166001811115610d3857610d386112ac565b6001811115610d4957610d496112ac565b8152602001600482018054610d5d906114e1565b80601f0160208091040260200160405190810160405280929190818152602001828054610d89906114e1565b8015610dd65780601f10610dab57610100808354040283529160200191610dd6565b820191906000526020600020905b815481529060010190602001808311610db957829003601f168201915b505050505081525050905092915050565b600082815260208190526040902060010154610e0281610e0c565b6106888383610eff565b610846813361100f565b60015460ff1615610e53576040517fd93c066500000000000000000000000000000000000000000000000000000000815260040160405180910390fd5b565b6000828152602081815260408083206001600160a01b038516845290915281205460ff16610ef7576000838152602081815260408083206001600160a01b03861684529091529020805460ff19166001179055610eaf3390565b6001600160a01b0316826001600160a01b0316847f2f8788117e7eff1d82e926ec794901d17c78024a50270940304540a733656f0d60405160405180910390a45060016103d1565b5060006103d1565b6000828152602081815260408083206001600160a01b038516845290915281205460ff1615610ef7576000838152602081815260408083206001600160a01b0386168085529252808320805460ff1916905551339286917ff6391f5c32d9c69d2a47ea670b442974b53935d1edc7fd64eb21e047a839171b9190a45060016103d1565b610f8a61107f565b6001805460ff191690557f5db9ee0a495bf2e6ff9c91a7834c1ba4fdd244a5e8aa4e537bd38aeae4b073aa335b6040516001600160a01b03909116815260200160405180910390a1565b610fdc610e16565b6001805460ff1916811790557f62e78cea01bee320cd4e420270b5ea74000d11b0c9f74754ebdbfc544b05a25833610fb7565b6000828152602081815260408083206001600160a01b038516845290915290205460ff1661107b576040517fe2517d3f0000000000000000000000000000000000000000000000000000000081526001600160a01b03821660048201526024810183905260440161045b565b5050565b60015460ff16610e53576040517f8dfc202b00000000000000000000000000000000000000000000000000000000815260040160405180910390fd5b6000602082840312156110cd57600080fd5b81357fffffffff00000000000000000000000000000000000000000000000000000000811681146110fd57600080fd5b9392505050565b80356001600160a01b038116811461111b57600080fd5b919050565b60008083601f84011261113257600080fd5b50813567ffffffffffffffff81111561114a57600080fd5b60208301915083602082850101111561116257600080fd5b9250929050565b600080600080600080600060c0888a03121561118457600080fd5b61118d88611104565b9650602088013595506040880135945060608801359350608088013580151581146111b757600080fd5b925060a088013567ffffffffffffffff8111156111d357600080fd5b6111df8a828b01611120565b989b979a50959850939692959293505050565b60006020828403121561120457600080fd5b5035919050565b6000806040838503121561121e57600080fd5b8235915061122e60208401611104565b90509250929050565b6000806000806060858703121561124d57600080fd5b61125685611104565b935060208501359250604085013567ffffffffffffffff81111561127957600080fd5b61128587828801611120565b95989497509550505050565b6000602082840312156112a357600080fd5b6110fd82611104565b634e487b7160e01b600052602160045260246000fd5b600281106112e057634e487b7160e01b600052602160045260246000fd5b9052565b8051825260208101516020830152604081015160408301526000606082015161131060608501826112c2565b50608082015160a0608085015280518060a086015260005b8181101561134557602081840181015160c0888401015201611328565b50600060c0828701015260c0601f19601f8301168601019250505092915050565b6000602082016020835280845180835260408501915060408160051b86010192506020860160005b828110156113bf57603f198786030184526113aa8583516112e4565b9450602093840193919091019060010161138e565b50929695505050505050565b60008060008060008060a087890312156113e457600080fd5b6113ed87611104565b9550602087013594506040870135935060608701359250608087013567ffffffffffffffff81111561141e57600080fd5b61142a89828a01611120565b979a9699509497509295939492505050565b6000806040838503121561144f57600080fd5b61145883611104565b946020939093013593505050565b6020815260006110fd60208301846112e4565b634e487b7160e01b600052603260045260246000fd5b634e487b7160e01b600052601160045260246000fd5b818103818111156103d1576103d161148f565b808201808211156103d1576103d161148f565b634e487b7160e01b600052604160045260246000fd5b600181811c908216806114f557607f821691505b60208210810361151557634e487b7160e01b600052602260045260246000fd5b50919050565b601f8211156106da57806000526020600020601f840160051c810160208510156115425750805b601f840160051c820191505b81811015611562576000815560010161154e565b5050505050565b67ffffffffffffffff831115611581576115816114cb565b6115958361158f83546114e1565b8361151b565b6000601f8411600181146115c957600085156115b15750838201355b600019600387901b1c1916600186901b178355611562565b600083815260209020601f19861690835b828110156115fa57868501358255602094850194600190920191016115da565b50868210156116175760001960f88860031b161c19848701351681555b505060018560011b0183555050505050565b81835281816020850137506000828201602090810191909152601f909101601f19169091010190565b86815285602082015284604082015261166e60608201856112c2565b60a06080820152600061168560a083018486611629565b98975050505050505050565b8481528360208201526060604082015260006116b1606083018486611629565b9695505050505050565b815167ffffffffffffffff8111156116d5576116d56114cb565b6116e9816116e384546114e1565b8461151b565b6020601f82116001811461171d57600083156117055750848201515b600019600385901b1c1916600184901b178455611562565b600084815260208120601f198516915b8281101561174d578785015182556020948501946001909201910161172d565b508482101561176b5786840151600019600387901b60f8161c191681555b50505050600190811b0190555056fea26469706673582212205fc02fe8b5112a6207df9f3b7d66c7568b268a0d5c438fd5640b69f9fff74eb064736f6c634300081c0033",
  "linkReferences": {},
  "deployedLinkReferences": {}
}