{
  "_format": "hh-sol-artifact-1",
  "contractName": "SCF37ContributionTracker",
  "sourceName": "contracts/SCF37ContributionTracker.sol",
  "abi": [
    {
      "inputs": [],
      "stateMutability": "nonpayable",
      "type": "constructor"
    },
    {
      "inputs": [],
      "name": "AccessControlBadConfirmation",
      "type": "error"
    },
    {
      "inputs": [
        {
          "internalType": "address",
          "name": "account",
          "type": "address"
        },
        {
          "internalType": "bytes32",
          "name": "neededRole",
          "type": "bytes32"
        }
      ],
      "name": "AccessControlUnauthorizedAccount",
      "type": "error"
    },
    {
      "inputs": [],
      "name": "EnforcedPause",
      "type": "error"
    },
    {
      "inputs": [],
      "name": "ExpectedPause",
      "type": "error"
    },
    {
      "anonymous": false,
      "inputs": [
        {
          "indexed": false,
          "internalType": "address",
          "name": "account",
          "type": "address"
        }
      ],
      "name": "Paused",
      "type": "event"
    },
    {
      "anonymous": false,
      "inputs": [
        {
          "indexed": true,
          "internalType": "address",
          "name": "user",
          "type": "address"
        },
        {
          "indexed": false,
          "internalType": "uint256",
          "name": "amount",
          "type": "uint256"
        },
        {
          "indexed": false,
          "internalType": "uint256",
          "name": "timestamp",
          "type": "uint256"
        },
        {
          "indexed": false,
          "internalType": "bytes32",
          "name": "txhash",
          "type": "bytes32"
        },
        {
          "indexed": false,
          "internalType": "enum SCF37ContributionTracker.ActionType",
          "name": "action",
          "type": "uint8"
        },
        {
          "indexed": false,
          "internalType": "string",
          "name": "note",
          "type": "string"
        }
      ],
      "name": "RecordContribution",
      "type": "event"
    },
    {
      "anonymous": false,
      "inputs": [
        {
          "indexed": true,
          "internalType": "bytes32",
          "name": "role",
          "type": "bytes32"
        },
        {
          "indexed": true,
          "internalType": "bytes32",
          "name": "previousAdminRole",
          "type": "bytes32"
        },
        {
          "indexed": true,
          "internalType": "bytes32",
          "name": "newAdminRole",
          "type": "bytes32"
        }
      ],
      "name": "RoleAdminChanged",
      "type": "event"
    },
    {
      "anonymous": false,
      "inputs": [
        {
          "indexed": true,
          "internalType": "bytes32",
          "name": "role",
          "type": "bytes32"
        },
        {
          "indexed": true,
          "internalType": "address",
          "name": "account",
          "type": "address"
        },
        {
          "indexed": true,
          "internalType": "address",
          "name": "sender",
          "type": "address"
        }
      ],
      "name": "RoleGranted",
      "type": "event"
    },
    {
      "anonymous": false,
      "inputs": [
        {
          "indexed": true,
          "internalType": "bytes32",
          "name": "role",
          "type": "bytes32"
        },
        {
          "indexed": true,
          "internalType": "address",
          "name": "account",
          "type": "address"
        },
        {
          "indexed": true,
          "internalType": "address",
          "name": "sender",
          "type": "address"
        }
      ],
      "name": "RoleRevoked",
      "type": "event"
    },
    {
      "anonymous": false,
      "inputs": [
        {
          "indexed": false,
          "internalType": "address",
          "name": "account",
          "type": "address"
        }
      ],
      "name": "Unpaused",
      "type": "event"
    },
    {
      "anonymous": false,
      "inputs": [
        {
          "indexed": true,
          "internalType": "address",
          "name": "user",
          "type": "address"
        },
        {
          "indexed": false,
          "internalType": "uint256",
          "name": "amount",
          "type": "uint256"
        },
        {
          "indexed": false,
          "internalType": "uint256",
          "name": "timestamp",
          "type": "uint256"
        },
        {
          "indexed": false,
          "internalType": "bytes32",
          "name": "txhash",
          "type": "bytes32"
        },
        {
          "indexed": false,
          "internalType": "enum SCF37ContributionTracker.ActionType",
          "name": "action",
          "type": "uint8"
        },
        {
          "indexed": false,
          "internalType": "string",
          "name": "note",
          "type": "string"
        }
      ],
      "name": "UpdatedHistory",
      "type": "event"
    },
    {
      "anonymous": false,
      "inputs": [
        {
          "indexed": true,
          "internalType": "address",
          "name": "user",
          "type": "address"
        },
        {
          "indexed": false,
          "internalType": "uint256",
          "name": "oldTotal",
          "type": "uint256"
        },
        {
          "indexed": false,
          "internalType": "uint256",
          "name": "newTotal",
          "type": "uint256"
        },
        {
          "indexed": false,
          "internalType": "string",
          "name": "note",
          "type": "string"
        }
      ],
      "name": "UserTotalUpdated",
      "type": "event"
    },
    {
      "inputs": [],
      "name": "ADMIN_ROLE",
      "outputs": [
        {
          "internalType": "bytes32",
          "name": "",
          "type": "bytes32"
        }
      ],
      "stateMutability": "view",
      "type": "function"
    },
    {
      "inputs": [],
      "name": "DEFAULT_ADMIN_ROLE",
      "outputs": [
        {
          "internalType": "bytes32",
          "name": "",
          "type": "bytes32"
        }
      ],
      "stateMutability": "view",
      "type": "function"
    },
    {
      "inputs": [
        {
          "internalType": "address",
          "name": "user",
          "type": "address"
        }
      ],
      "name": "getHistoryByUser",
      "outputs": [
        {
          "components": [
            {
              "internalType": "uint256",
              "name": "amount",
              "type": "uint256"
            },
            {
              "internalType": "uint256",
              "name": "timestamp",
              "type": "uint256"
            },
            {
              "internalType": "bytes32",
              "name": "txhash",
              "type": "bytes32"
            },
            {
              "internalType": "enum SCF37ContributionTracker.ActionType",
              "name": "action",
              "type": "uint8"
            },
            {
              "internalType": "string",
              "name": "note",
              "type": "string"
            }
          ],
          "internalType": "struct SCF37ContributionTracker.HistoryEntry[]",
          "name": "",
          "type": "tuple[]"
        }
      ],
      "stateMutability": "view",
      "type": "function"
    },
    {
      "inputs": [
        {
          "internalType": "address",
          "name": "user",
          "type": "address"
        }
      ],
      "name": "getHistoryCount",
      "outputs": [
        {
          "internalType": "uint256",
          "name": "",
          "type": "uint256"
        }
      ],
      "stateMutability": "view",
      "type": "function"
    },
    {
      "inputs": [
        {
          "internalType": "address",
          "name": "user",
          "type": "address"
        },
        {
          "internalType": "uint256",
          "name": "index",
          "type": "uint256"
        }
      ],
      "name": "getHistoryEntry",
      "outputs": [
        {
          "components": [
            {
              "internalType": "uint256",
              "name": "amount",
              "type": "uint256"
            },
            {
              "internalType": "uint256",
              "name": "timestamp",
              "type": "uint256"
            },
            {
              "internalType": "bytes32",
              "name": "txhash",
              "type": "bytes32"
            },
            {
              "internalType": "enum SCF37ContributionTracker.ActionType",
              "name": "action",
              "type": "uint8"
            },
            {
              "internalType": "string",
              "name": "note",
              "type": "string"
            }
          ],
          "internalType": "struct SCF37ContributionTracker.HistoryEntry",
          "name": "",
          "type": "tuple"
        }
      ],
      "stateMutability": "view",
      "type": "function"
    },
    {
      "inputs": [
        {
          "internalType": "bytes32",
          "name": "role",
          "type": "bytes32"
        }
      ],
      "name": "getRoleAdmin",
      "outputs": [
        {
          "internalType": "bytes32",
          "name": "",
          "type": "bytes32"
        }
      ],
      "stateMutability": "view",
      "type": "function"
    },
    {
      "inputs": [
        {
          "internalType": "address",
          "name": "user",
          "type": "address"
        }
      ],
      "name": "getTotalByUser",
      "outputs": [
        {
          "internalType": "uint256",
          "name": "",
          "type": "uint256"
        }
      ],
      "stateMutability": "view",
      "type": "function"
    },
    {
      "inputs": [],
      "name": "getTotalSystem",
      "outputs": [
        {
          "internalType": "uint256",
          "name": "",
          "type": "uint256"
        }
      ],
      "stateMutability": "view",
      "type": "function"
    },
    {
      "inputs": [
        {
          "internalType": "bytes32",
          "name": "role",
          "type": "bytes32"
        },
        {
          "internalType": "address",
          "name": "account",
          "type": "address"
        }
      ],
      "name": "grantRole",
      "outputs": [],
      "stateMutability": "nonpayable",
      "type": "function"
    },
    {
      "inputs": [
        {
          "internalType": "bytes32",
          "name": "role",
          "type": "bytes32"
        },
        {
          "internalType": "address",
          "name": "account",
          "type": "address"
        }
      ],
      "name": "hasRole",
      "outputs": [
        {
          "internalType": "bool",
          "name": "",
          "type": "bool"
        }
      ],
      "stateMutability": "view",
      "type": "function"
    },
    {
      "inputs": [],
      "name": "pause",
      "outputs": [],
      "stateMutability": "nonpayable",
      "type": "function"
    },
    {
      "inputs": [],
      "name": "paused",
      "outputs": [
        {
          "internalType": "bool",
          "name": "",
          "type": "bool"
        }
      ],
      "stateMutability": "view",
      "type": "function"
    },
    {
      "inputs": [
        {
          "internalType": "address",
          "name": "user",
          "type": "address"
        },
        {
          "internalType": "uint256",
          "name": "amount",
          "type": "uint256"
        },
        {
          "internalType": "uint256",
          "name": "timestamp",
          "type": "uint256"
        },
        {
          "internalType": "bytes32",
          "name": "txhash",
          "type": "bytes32"
        },
        {
          "internalType": "string",
          "name": "note",
          "type": "string"
        }
      ],
      "name": "recordContribution",
      "outputs": [],
      "stateMutability": "nonpayable",
      "type": "function"
    },
    {
      "inputs": [
        {
          "internalType": "bytes32",
          "name": "role",
          "type": "bytes32"
        },
        {
          "internalType": "address",
          "name": "callerConfirmation",
          "type": "address"
        }
      ],
      "name": "renounceRole",
      "outputs": [],
      "stateMutability": "nonpayable",
      "type": "function"
    },
    {
      "inputs": [
        {
          "internalType": "bytes32",
          "name": "role",
          "type": "bytes32"
        },
        {
          "internalType": "address",
          "name": "account",
          "type": "address"
        }
      ],
      "name": "revokeRole",
      "outputs": [],
      "stateMutability": "nonpayable",
      "type": "function"
    },
    {
      "inputs": [
        {
          "internalType": "address",
          "name": "user",
          "type": "address"
        },
        {
          "internalType": "uint256",
          "name": "newTotal",
          "type": "uint256"
        },
        {
          "internalType": "string",
          "name": "note",
          "type": "string"
        }
      ],
      "name": "setUserTotal",
      "outputs": [],
      "stateMutability": "nonpayable",
      "type": "function"
    },
    {
      "inputs": [
        {
          "internalType": "bytes4",
          "name": "interfaceId",
          "type": "bytes4"
        }
      ],
      "name": "supportsInterface",
      "outputs": [
        {
          "internalType": "bool",
          "name": "",
          "type": "bool"
        }
      ],
      "stateMutability": "view",
      "type": "function"
    },
    {
      "inputs": [],
      "name": "unpause",
      "outputs": [],
      "stateMutability": "nonpayable",
      "type": "function"
    },
    {
      "inputs": [
        {
          "internalType": "address",
          "name": "user",
          "type": "address"
        },
        {
          "internalType": "uint256",
          "name": "index",
          "type": "uint256"
        },
        {
          "internalType": "uint256",
          "name": "newAmount",
          "type": "uint256"
        },
        {
          "internalType": "bytes32",
          "name": "txhash",
          "type": "bytes32"
        },
        {
          "internalType": "bool",
          "name": "changeNote",
          "type": "bool"
        },
        {
          "internalType": "string",
          "name": "note",
          "type": "string"
        }
      ],
      "name": "updateHistory",
      "outputs": [],
      "stateMutability": "nonpayable",
      "type": "function"
    }
  ],
  "bytecode": "0x608060405234801561001057600080fd5b5061001c60003361004d565b506100477fa49807205ce4d355092ef5a8a18f56e8913cf4a201fbe287825b095693c217753361004d565b506100f9565b6000828152602081815260408083206001600160a01b038516845290915281205460ff166100ef576000838152602081815260408083206001600160a01b03861684529091529020805460ff191660011790556100a73390565b6001600160a01b0316826001600160a01b0316847f2f8788117e7eff1d82e926ec794901d17c78024a50270940304540a733656f0d60405160405180910390a45060016100f3565b5060005b92915050565b6117ae806101086000396000f3fe608060405234801561001057600080fd5b50600436106101515760003560e01c80636ccdb6f3116100cd57806391d1485411610081578063a27fdf9911610066578063a27fdf99146102d9578063b1fdb11b14610302578063d547741f1461032b57600080fd5b806391d148541461029a578063a217fddf146102d157600080fd5b806375b238fc116100b257806375b238fc1461024b5780638456cb59146102725780638cc9383e1461027a57600080fd5b80636ccdb6f3146102305780636cfd8ee41461023857600080fd5b806336568abe116101245780633f4ba83a116101095780633f4ba83a146101fd5780635213cd1e146102055780635c975abb1461022557600080fd5b806336568abe146101d75780633ec58f64146101ea57600080fd5b806301ffc9a71461015657806310de89d41461017e578063248a9ca3146101935780632f2ff15d146101c4575b600080fd5b6101696101643660046110b9565b61033e565b60405190151581526020015b60405180910390f35b61019161018c366004611167565b6103d7565b005b6101b66101a13660046111f0565b60009081526020819052604090206001015490565b604051908152602001610175565b6101916101d2366004611209565b610661565b6101916101e5366004611209565b61068c565b6101916101f8366004611235565b6106dd565b610191610831565b61021861021336600461128f565b610847565b6040516101759190611364565b60015460ff16610169565b6004546101b6565b6101916102463660046113c9565b6109a5565b6101b67fa49807205ce4d355092ef5a8a18f56e8913cf4a201fbe287825b095693c2177581565b610191610c05565b61028d61028836600461143a565b610c18565b6040516101759190611464565b6101696102a8366004611209565b6000918252602082815260408084206001600160a01b0393909316845291905290205460ff1690565b6101b6600081565b6101b66102e736600461128f565b6001600160a01b031660009081526003602052604090205490565b6101b661031036600461128f565b6001600160a01b031660009081526002602052604090205490565b610191610339366004611209565b610de5565b60007fffffffff0000000000000000000000000000000000000000000000000000000082167f7965db0b0000000000000000000000000000000000000000000000000000000014806103d157507f01ffc9a7000000000000000000000000000000000000000000000000000000007fffffffff000000000000000000000000000000000000000000000000000000008316145b92915050565b7fa49807205ce4d355092ef5a8a18f56e8913cf4a201fbe287825b095693c2177561040181610e0a565b610409610e14565b6001600160a01b0388166104645760405162461bcd60e51b815260206004820152601460248201527f496e76616c69642075736572206164647265737300000000000000000000000060448201526064015b60405180910390fd5b6001600160a01b03881660009081526002602052604090205487106104cb5760405162461bcd60e51b815260206004820152600d60248201527f496e76616c696420696e64657800000000000000000000000000000000000000604482015260640161045b565b6001600160a01b03881660009081526002602052604081208054899081106104f5576104f5611477565b6000918252602090912060059091020180549091508088111561057057600061051e828a6114a3565b6001600160a01b038c1660009081526003602052604081208054929350839290919061054b9084906114b6565b92505081905550806004600082825461056491906114b6565b909155506105d1915050565b878111156105d157600061058489836114a3565b6001600160a01b038c166000908152600360205260408120805492935083929091906105b19084906114a3565b9250508190555080600460008282546105ca91906114a3565b9091555050505b87825560038201805460ff1916600190811790915560028301889055429083015585156106095760048201610607858783611567565b505b896001600160a01b03167f87c65ee1c7958f0836bfb0ce40eb702e7483ca6468df21ef4ad8b91f846f64a689428a60018a8a60405161064d96959493929190611650565b60405180910390a250505050505050505050565b60008281526020819052604090206001015461067c81610e0a565b6106868383610e53565b50505050565b6001600160a01b03811633146106ce576040517f6697b23200000000000000000000000000000000000000000000000000000000815260040160405180910390fd5b6106d88282610efd565b505050565b7fa49807205ce4d355092ef5a8a18f56e8913cf4a201fbe287825b095693c2177561070781610e0a565b61070f610e14565b6001600160a01b0385166107655760405162461bcd60e51b815260206004820152601460248201527f496e76616c696420757365722061646472657373000000000000000000000000604482015260640161045b565b6001600160a01b038516600090815260036020526040902054808511156107a75761079081866114a3565b600460008282546107a191906114b6565b90915550505b848111156107d0576107b985826114a3565b600460008282546107ca91906114a3565b90915550505b6001600160a01b03861660008181526003602052604090819020879055517fe73ca463945d952cd7093ceaf2203b60b7dd0eee91a1aff7e8f2c0c08bf8299e9061082190849089908990899061168f565b60405180910390a2505050505050565b600061083c81610e0a565b610844610f80565b50565b6001600160a01b0381166000908152600260209081526040808320805482518185028101850190935280835260609492939192909184015b8282101561099a57838290600052602060002090600502016040518060a00160405290816000820154815260200160018201548152602001600282015481526020016003820160009054906101000a900460ff1660018111156108e4576108e46112aa565b60018111156108f5576108f56112aa565b8152602001600482018054610909906114df565b80601f0160208091040260200160405190810160405280929190818152602001828054610935906114df565b80156109825780601f1061095757610100808354040283529160200191610982565b820191906000526020600020905b81548152906001019060200180831161096557829003601f168201915b5050505050815250508152602001906001019061087f565b505050509050919050565b7fa49807205ce4d355092ef5a8a18f56e8913cf4a201fbe287825b095693c217756109cf81610e0a565b6109d7610e14565b6001600160a01b038716610a2d5760405162461bcd60e51b815260206004820152601460248201527f496e76616c696420757365722061646472657373000000000000000000000000604482015260640161045b565b60008611610a7d5760405162461bcd60e51b815260206004820152601260248201527f416d6f756e74206d757374206265203e20300000000000000000000000000000604482015260640161045b565b6001600160a01b0387166000908152600260209081526040808320815160a0810183528a8152928301899052908201879052916060820190815260200185858080601f016020809104026020016040519081016040528093929190818152602001838380828437600092018290525093909452505083546001818101865594825260209182902084516005909202019081559083015181850155604083015160028201556060830151600382018054949592949193509160ff19909116908381811115610b4c57610b4c6112aa565b021790555060808201516004820190610b6590826116b9565b5050506001600160a01b03871660009081526003602052604081208054889290610b909084906114b6565b925050819055508560046000828254610ba991906114b6565b92505081905550866001600160a01b03167fcf0757256694536d30c25faf9c59f92df0534998f9ffddfe62815d4aa22ce78d87878760008888604051610bf496959493929190611650565b60405180910390a250505050505050565b6000610c1081610e0a565b610844610fd2565b610c4a6040805160a0810182526000808252602082018190529181018290529060608201908152602001606081525090565b6001600160a01b0383166000908152600260205260409020548210610cb15760405162461bcd60e51b815260206004820152601260248201527f496e646578206f7574206f662072616e67650000000000000000000000000000604482015260640161045b565b6001600160a01b0383166000908152600260205260409020805483908110610cdb57610cdb611477565b90600052602060002090600502016040518060a00160405290816000820154815260200160018201548152602001600282015481526020016003820160009054906101000a900460ff166001811115610d3657610d366112aa565b6001811115610d4757610d476112aa565b8152602001600482018054610d5b906114df565b80601f0160208091040260200160405190810160405280929190818152602001828054610d87906114df565b8015610dd45780601f10610da957610100808354040283529160200191610dd4565b820191906000526020600020905b815481529060010190602001808311610db757829003601f168201915b505050505081525050905092915050565b600082815260208190526040902060010154610e0081610e0a565b6106868383610efd565b610844813361100d565b60015460ff1615610e51576040517fd93c066500000000000000000000000000000000000000000000000000000000815260040160405180910390fd5b565b6000828152602081815260408083206001600160a01b038516845290915281205460ff16610ef5576000838152602081815260408083206001600160a01b03861684529091529020805460ff19166001179055610ead3390565b6001600160a01b0316826001600160a01b0316847f2f8788117e7eff1d82e926ec794901d17c78024a50270940304540a733656f0d60405160405180910390a45060016103d1565b5060006103d1565b6000828152602081815260408083206001600160a01b038516845290915281205460ff1615610ef5576000838152602081815260408083206001600160a01b0386168085529252808320805460ff1916905551339286917ff6391f5c32d9c69d2a47ea670b442974b53935d1edc7fd64eb21e047a839171b9190a45060016103d1565b610f8861107d565b6001805460ff191690557f5db9ee0a495bf2e6ff9c91a7834c1ba4fdd244a5e8aa4e537bd38aeae4b073aa335b6040516001600160a01b03909116815260200160405180910390a1565b610fda610e14565b6001805460ff1916811790557f62e78cea01bee320cd4e420270b5ea74000d11b0c9f74754ebdbfc544b05a25833610fb5565b6000828152602081815260408083206001600160a01b038516845290915290205460ff16611079576040517fe2517d3f0000000000000000000000000000000000000000000000000000000081526001600160a01b03821660048201526024810183905260440161045b565b5050565b60015460ff16610e51576040517f8dfc202b00000000000000000000000000000000000000000000000000000000815260040160405180910390fd5b6000602082840312156110cb57600080fd5b81357fffffffff00000000000000000000000000000000000000000000000000000000811681146110fb57600080fd5b9392505050565b80356001600160a01b038116811461111957600080fd5b919050565b60008083601f84011261113057600080fd5b50813567ffffffffffffffff81111561114857600080fd5b60208301915083602082850101111561116057600080fd5b9250929050565b600080600080600080600060c0888a03121561118257600080fd5b61118b88611102565b9650602088013595506040880135945060608801359350608088013580151581146111b557600080fd5b925060a088013567ffffffffffffffff8111156111d157600080fd5b6111dd8a828b0161111e565b989b979a50959850939692959293505050565b60006020828403121561120257600080fd5b5035919050565b6000806040838503121561121c57600080fd5b8235915061122c60208401611102565b90509250929050565b6000806000806060858703121561124b57600080fd5b61125485611102565b935060208501359250604085013567ffffffffffffffff81111561127757600080fd5b6112838782880161111e565b95989497509550505050565b6000602082840312156112a157600080fd5b6110fb82611102565b634e487b7160e01b600052602160045260246000fd5b600281106112de57634e487b7160e01b600052602160045260246000fd5b9052565b8051825260208101516020830152604081015160408301526000606082015161130e60608501826112c0565b50608082015160a0608085015280518060a086015260005b8181101561134357602081840181015160c0888401015201611326565b50600060c0828701015260c0601f19601f8301168601019250505092915050565b6000602082016020835280845180835260408501915060408160051b86010192506020860160005b828110156113bd57603f198786030184526113a88583516112e2565b9450602093840193919091019060010161138c565b50929695505050505050565b60008060008060008060a087890312156113e257600080fd5b6113eb87611102565b9550602087013594506040870135935060608701359250608087013567ffffffffffffffff81111561141c57600080fd5b61142889828a0161111e565b979a9699509497509295939492505050565b6000806040838503121561144d57600080fd5b61145683611102565b946020939093013593505050565b6020815260006110fb60208301846112e2565b634e487b7160e01b600052603260045260246000fd5b634e487b7160e01b600052601160045260246000fd5b818103818111156103d1576103d161148d565b808201808211156103d1576103d161148d565b634e487b7160e01b600052604160045260246000fd5b600181811c908216806114f357607f821691505b60208210810361151357634e487b7160e01b600052602260045260246000fd5b50919050565b601f8211156106d857806000526020600020601f840160051c810160208510156115405750805b601f840160051c820191505b81811015611560576000815560010161154c565b5050505050565b67ffffffffffffffff83111561157f5761157f6114c9565b6115938361158d83546114df565b83611519565b6000601f8411600181146115c757600085156115af5750838201355b600019600387901b1c1916600186901b178355611560565b600083815260209020601f19861690835b828110156115f857868501358255602094850194600190920191016115d8565b50868210156116155760001960f88860031b161c19848701351681555b505060018560011b0183555050505050565b81835281816020850137506000828201602090810191909152601f909101601f19169091010190565b86815285602082015284604082015261166c60608201856112c0565b60a06080820152600061168360a083018486611627565b98975050505050505050565b8481528360208201526060604082015260006116af606083018486611627565b9695505050505050565b815167ffffffffffffffff8111156116d3576116d36114c9565b6116e7816116e184546114df565b84611519565b6020601f82116001811461171b57600083156117035750848201515b600019600385901b1c1916600184901b178455611560565b600084815260208120601f198516915b8281101561174b578785015182556020948501946001909201910161172b565b50848210156117695786840151600019600387901b60f8161c191681555b50505050600190811b0190555056fea26469706673582212205c14f4109cc8795d4a7c45252055f592027cdfe64ad85ecc7af47e6b9e239a3664736f6c634300081c0033",
  "linkReferences": {},
  "deployedLinkReferences": {}
}